{"contracts/SkillStaking.sol":{"SkillStaking":{"abi":[{"inputs":[{"internalType":"address","name":"_teeAttestor","type":"address"}],"stateMutability":"nonpayable","type":"constructor"},{"inputs":[{"internalType":"address","name":"owner","type":"address"}],"name":"OwnableInvalidOwner","type":"error"},{"inputs":[{"internalType":"address","name":"account","type":"address"}],"name":"OwnableUnauthorizedAccount","type":"error"},{"inputs":[],"name":"ReentrancyGuardReentrantCall","type":"error"},{"anonymous":false,"inputs":[{"indexed":true,"internalType":"address","name":"user","type":"address"},{"indexed":true,"internalType":"string","name":"skill","type":"string"},{"indexed":false,"internalType":"uint256","name":"milestoneId","type":"uint256"},{"indexed":false,"internalType":"uint256","name":"timestamp","type":"uint256"}],"name":"MilestoneRecorded","type":"event"},{"anonymous":false,"inputs":[{"indexed":true,"internalType":"address","name":"previousOwner","type":"address"},{"indexed":true,"internalType":"address","name":"newOwner","type":"address"}],"name":"OwnershipTransferred","type":"event"},{"anonymous":false,"inputs":[{"indexed":true,"internalType":"address","name":"user","type":"address"},{"indexed":true,"internalType":"string","name":"skill","type":"string"},{"indexed":false,"internalType":"uint256","name":"amountReturned","type":"uint256"},{"indexed":false,"internalType":"uint256","name":"timestamp","type":"uint256"}],"name":"RefundClaimed","type":"event"},{"anonymous":false,"inputs":[{"indexed":true,"internalType":"address","name":"user","type":"address"},{"indexed":true,"internalType":"string","name":"skill","type":"string"},{"indexed":false,"internalType":"uint256","name":"amount","type":"uint256"},{"indexed":false,"internalType":"uint256","name":"timestamp","type":"uint256"}],"name":"StakeLocked","type":"event"},{"anonymous":false,"inputs":[{"indexed":true,"internalType":"address","name":"newAttestor","type":"address"}],"name":"TEEAttestorUpdated","type":"event"},{"inputs":[],"name":"PASS_THRESHOLD","outputs":[{"internalType":"uint256","name":"","type":"uint256"}],"stateMutability":"view","type":"function"},{"inputs":[],"name":"STAKE_AMOUNT","outputs":[{"internalType":"uint256","name":"","type":"uint256"}],"stateMutability":"view","type":"function"},{"inputs":[{"internalType":"address","name":"user","type":"address"},{"internalType":"string","name":"skill","type":"string"},{"internalType":"uint256","name":"finalScore","type":"uint256"}],"name":"claimRefund","outputs":[],"stateMutability":"nonpayable","type":"function"},{"inputs":[],"name":"owner","outputs":[{"internalType":"address","name":"","type":"address"}],"stateMutability":"view","type":"function"},{"inputs":[{"internalType":"address","name":"user","type":"address"},{"internalType":"string","name":"skill","type":"string"},{"internalType":"uint256","name":"milestoneId","type":"uint256"}],"name":"recordMilestone","outputs":[],"stateMutability":"nonpayable","type":"function"},{"inputs":[],"name":"renounceOwnership","outputs":[],"stateMutability":"nonpayable","type":"function"},{"inputs":[{"internalType":"string","name":"skillTopic","type":"string"}],"name":"stake","outputs":[],"stateMutability":"payable","type":"function"},{"inputs":[{"internalType":"address","name":"","type":"address"},{"internalType":"string","name":"","type":"string"}],"name":"stakes","outputs":[{"internalType":"uint256","name":"amount","type":"uint256"},{"internalType":"uint256","name":"stakedAt","type":"uint256"},{"internalType":"uint256","name":"milestoneCheckpoint","type":"uint256"},{"internalType":"bool","name":"attestationComplete","type":"bool"},{"internalType":"bool","name":"refunded","type":"bool"},{"internalType":"string","name":"skillTopic","type":"string"}],"stateMutability":"view","type":"function"},{"inputs":[],"name":"teeAttestor","outputs":[{"internalType":"address","name":"","type":"address"}],"stateMutability":"view","type":"function"},{"inputs":[{"internalType":"address","name":"newOwner","type":"address"}],"name":"transferOwnership","outputs":[],"stateMutability":"nonpayable","type":"function"},{"inputs":[{"internalType":"address","name":"_newAttestor","type":"address"}],"name":"updateTEEAttestor","outputs":[],"stateMutability":"nonpayable","type":"function"},{"inputs":[],"name":"withdrawTreasury","outputs":[],"stateMutability":"nonpayable","type":"function"}],"evm":{"bytecode":{"linkReferences":{},"object":"608060405234801561001057600080fd5b506040516111fc3803806111fc83398101604081905261002f916100db565b6001600055338061005a57604051631e4fbdf760e01b81526000600482015260240160405180910390fd5b61006381610089565b50600380546001600160a01b0319166001600160a01b039290921691909117905561010b565b600180546001600160a01b038381166001600160a01b0319831681179093556040519116919082907f8be0079c531659141344cd1fd0a4f28419497f9722a3daafe3b4186f6b6457e090600090a35050565b6000602082840312156100ed57600080fd5b81516001600160a01b038116811461010457600080fd5b9392505050565b6110e28061011a6000396000f3fe6080604052600436106100a75760003560e01c80638c56dcaf116100645780638c56dcaf146101535780638da5cb5b1461018b578063a14d4177146101a9578063c8653171146101c9578063f2fde38b146101fb578063faf5625f1461021b57600080fd5b80630e15d63f146100ac578063166bab95146100ce57806333f78d59146100e357806346f45b8d1461010b578063715018a61461011e578063894b8df414610133575b600080fd5b3480156100b857600080fd5b506100cc6100c7366004610cfa565b610236565b005b3480156100da57600080fd5b506100cc6104cd565b3480156100ef57600080fd5b506100f8604681565b6040519081526020015b60405180910390f35b6100cc610119366004610d54565b6105c4565b34801561012a57600080fd5b506100cc6107e9565b34801561013f57600080fd5b506100cc61014e366004610cfa565b6107fd565b34801561015f57600080fd5b50600354610173906001600160a01b031681565b6040516001600160a01b039091168152602001610102565b34801561019757600080fd5b506001546001600160a01b0316610173565b3480156101b557600080fd5b506100cc6101c4366004610d96565b610a31565b3480156101d557600080fd5b506101e96101e4366004610dce565b610acb565b60405161010296959493929190610e90565b34801561020757600080fd5b506100cc610216366004610d96565b610bae565b34801561022757600080fd5b506100f866038d7ea4c6800081565b6003546001600160a01b031633146102955760405162461bcd60e51b815260206004820152601f60248201527f4f6e6c79205445452063616e2063616c6c20746869732066756e6374696f6e0060448201526064015b60405180910390fd5b61029d610bec565b6001600160a01b03841660009081526002602052604080822090516102c59086908690610f06565b9081526020016040518091039020905060008160000154116103215760405162461bcd60e51b8152602060048201526015602482015274139bc81858dd1a5d99481cdd185ad948199bdd5b99605a1b604482015260640161028c565b6003810154610100900460ff16156103745760405162461bcd60e51b815260206004820152601660248201527514dd185ad948185b1c9958591e481c99599d5b99195960521b604482015260640161028c565b60006046831061039f57815460649061038e906050610f16565b6103989190610f41565b90506103bc565b81546064906103af906014610f16565b6103b99190610f41565b90505b60038201805461ffff19166101011790556040516000906001600160a01b0388169083908381818185875af1925050503d8060008114610418576040519150601f19603f3d011682016040523d82523d6000602084013e61041d565b606091505b50509050806104605760405162461bcd60e51b815260206004820152600f60248201526e151c985b9cd9995c8819985a5b1959608a1b604482015260640161028c565b8585604051610470929190610f06565b60408051918290038220848352426020840152916001600160a01b038a16917f9426d767e28c0a4734da8bf6ee9caa2a1401c005cb3fc663ef2300a824058022910160405180910390a35050506104c76001600055565b50505050565b6104d5610c16565b478061051a5760405162461bcd60e51b81526020600482015260146024820152734e6f2066756e647320746f20776974686472617760601b604482015260640161028c565b600061052e6001546001600160a01b031690565b6001600160a01b03168260405160006040518083038185875af1925050503d8060008114610578576040519150601f19603f3d011682016040523d82523d6000602084013e61057d565b606091505b50509050806105c05760405162461bcd60e51b815260206004820152600f60248201526e151c985b9cd9995c8819985a5b1959608a1b604482015260640161028c565b5050565b6105cc610bec565b66038d7ea4c68000341461061b5760405162461bcd60e51b8152602060048201526016602482015275125b98dbdc9c9958dd081cdd185ad948185b5bdd5b9d60521b604482015260640161028c565b3360009081526002602052604090819020905161063b9084908490610f06565b90815260405190819003602001902054156106985760405162461bcd60e51b815260206004820152601d60248201527f416c7265616479207374616b656420666f72207468697320736b696c6c000000604482015260640161028c565b6040518060c001604052803481526020014281526020016000815260200160001515815260200160001515815260200183838080601f0160208091040260200160405190810160405280939291908181526020018383808284376000920182905250939094525050338152600260205260409081902090519091506107209085908590610f06565b908152604080519182900360209081019092208351815591830151600183015582015160028201556060820151600382018054608085015115156101000261ff00199315159390931661ffff199091161791909117905560a0820151600482019061078b9082610fec565b505060405161079e915083908390610f06565b604080519182900382203483524260208401529133917fe8a7e74a857c2dd1f92e8ac287fc09532fb7a97c72942ed545cfe1538c5d9192910160405180910390a36105c06001600055565b6107f1610c16565b6107fb6000610c43565b565b6003546001600160a01b031633146108575760405162461bcd60e51b815260206004820152601f60248201527f4f6e6c79205445452063616e2063616c6c20746869732066756e6374696f6e00604482015260640161028c565b6001600160a01b038416600090815260026020526040808220905161087f9086908690610f06565b9081526020016040518091039020905060008160000154116108db5760405162461bcd60e51b8152602060048201526015602482015274139bc81858dd1a5d99481cdd185ad948199bdd5b99605a1b604482015260640161028c565b6003810154610100900460ff161561092e5760405162461bcd60e51b815260206004820152601660248201527514dd185ad948185b1c9958591e481c99599d5b99195960521b604482015260640161028c565b806002015482116109815760405162461bcd60e51b815260206004820152601a60248201527f4d696c6573746f6e6520616c7265616479207265636f72646564000000000000604482015260640161028c565b60058211156109c95760405162461bcd60e51b8152602060048201526014602482015273125b9d985b1a59081b5a5b195cdd1bdb9948125160621b604482015260640161028c565b600281018290556040516109e09085908590610f06565b60408051918290038220848352426020840152916001600160a01b038816917f03c8cc3a9ebf0b6cfa6c3083a5188afb5f2f4f4d8a547d4f452ee1e917d6d731910160405180910390a35050505050565b610a39610c16565b6001600160a01b038116610a815760405162461bcd60e51b815260206004820152600f60248201526e496e76616c6964206164647265737360881b604482015260640161028c565b600380546001600160a01b0319166001600160a01b0383169081179091556040517f4086ba3dbeb84969428365cdf18f4ace5e3dab8e5394457c6b47881986f78dd590600090a250565b600260208181526000938452604090932082518084018501805192815290850193909401929092209190925280546001820154928201546003830154600484018054939594929360ff8084169461010090940416929190610b2b90610f63565b80601f0160208091040260200160405190810160405280929190818152602001828054610b5790610f63565b8015610ba45780601f10610b7957610100808354040283529160200191610ba4565b820191906000526020600020905b815481529060010190602001808311610b8757829003601f168201915b5050505050905086565b610bb6610c16565b6001600160a01b038116610be057604051631e4fbdf760e01b81526000600482015260240161028c565b610be981610c43565b50565b600260005403610c0f57604051633ee5aeb560e01b815260040160405180910390fd5b6002600055565b6001546001600160a01b031633146107fb5760405163118cdaa760e01b815233600482015260240161028c565b600180546001600160a01b038381166001600160a01b0319831681179093556040519116919082907f8be0079c531659141344cd1fd0a4f28419497f9722a3daafe3b4186f6b6457e090600090a35050565b80356001600160a01b0381168114610cac57600080fd5b919050565b60008083601f840112610cc357600080fd5b50813567ffffffffffffffff811115610cdb57600080fd5b602083019150836020828501011115610cf357600080fd5b9250929050565b60008060008060608587031215610d1057600080fd5b610d1985610c95565b9350602085013567ffffffffffffffff811115610d3557600080fd5b610d4187828801610cb1565b9598909750949560400135949350505050565b60008060208385031215610d6757600080fd5b823567ffffffffffffffff811115610d7e57600080fd5b610d8a85828601610cb1565b90969095509350505050565b600060208284031215610da857600080fd5b610db182610c95565b9392505050565b634e487b7160e01b600052604160045260246000fd5b60008060408385031215610de157600080fd5b610dea83610c95565b9150602083013567ffffffffffffffff80821115610e0757600080fd5b818501915085601f830112610e1b57600080fd5b813581811115610e2d57610e2d610db8565b604051601f8201601f19908116603f01168101908382118183101715610e5557610e55610db8565b81604052828152886020848701011115610e6e57600080fd5b8260208601602083013760006020848301015280955050505050509250929050565b8681526000602087818401528660408401528515156060840152841515608084015260c060a084015283518060c085015260005b81811015610ee05785810183015185820160e001528201610ec4565b50600060e0828601015260e0601f19601f83011685010192505050979650505050505050565b8183823760009101908152919050565b8082028115828204841417610f3b57634e487b7160e01b600052601160045260246000fd5b92915050565b600082610f5e57634e487b7160e01b600052601260045260246000fd5b500490565b600181811c90821680610f7757607f821691505b602082108103610f9757634e487b7160e01b600052602260045260246000fd5b50919050565b601f821115610fe757600081815260208120601f850160051c81016020861015610fc45750805b601f850160051c820191505b81811015610fe357828155600101610fd0565b5050505b505050565b815167ffffffffffffffff81111561100657611006610db8565b61101a816110148454610f63565b84610f9d565b602080601f83116001811461104f57600084156110375750858301515b600019600386901b1c1916600185901b178555610fe3565b600085815260208120601f198616915b8281101561107e5788860151825594840194600190910190840161105f565b508582101561109c5787850151600019600388901b60f8161c191681555b5050505050600190811b0190555056fea2646970667358221220ab37705805480a506e4c69e13f218d33b9da22b969d322c81f5734f919977a5064736f6c63430008140033","opcodes":"PUSH1 0x80 PUSH1 0x40 MSTORE CALLVALUE DUP1 ISZERO PUSH2 0x10 JUMPI PUSH1 0x0 DUP1 REVERT JUMPDEST POP PUSH1 0x40 MLOAD PUSH2 0x11FC CODESIZE SUB DUP1 PUSH2 0x11FC DUP4 CODECOPY DUP2 ADD PUSH1 0x40 DUP2 SWAP1 MSTORE PUSH2 0x2F SWAP2 PUSH2 0xDB JUMP JUMPDEST PUSH1 0x1 PUSH1 0x0 SSTORE CALLER DUP1 PUSH2 0x5A JUMPI PUSH1 0x40 MLOAD PUSH4 0x1E4FBDF7 PUSH1 0xE0 SHL DUP2 MSTORE PUSH1 0x0 PUSH1 0x4 DUP3 ADD MSTORE PUSH1 0x24 ADD PUSH1 0x40 MLOAD DUP1 SWAP2 SUB SWAP1 REVERT JUMPDEST PUSH2 0x63 DUP2 PUSH2 0x89 JUMP JUMPDEST POP PUSH1 0x3 DUP1 SLOAD PUSH1 0x1 PUSH1 0x1 PUSH1 0xA0 SHL SUB NOT AND PUSH1 0x1 PUSH1 0x1 PUSH1 0xA0 SHL SUB SWAP3 SWAP1 SWAP3 AND SWAP2 SWAP1 SWAP2 OR SWAP1 SSTORE PUSH2 0x10B JUMP JUMPDEST PUSH1 0x1 DUP1 SLOAD PUSH1 0x1 PUSH1 0x1 PUSH1 0xA0 SHL SUB DUP4 DUP2 AND PUSH1 0x1 PUSH1 0x1 PUSH1 0xA0 SHL SUB NOT DUP4 AND DUP2 OR SWAP1 SWAP4 SSTORE PUSH1 0x40 MLOAD SWAP2 AND SWAP2 SWAP1 DUP3 SWAP1 PUSH32 0x8BE0079C531659141344CD1FD0A4F28419497F9722A3DAAFE3B4186F6B6457E0 SWAP1 PUSH1 0x0 SWAP1 LOG3 POP POP JUMP JUMPDEST PUSH1 0x0 PUSH1 0x20 DUP3 DUP5 SUB SLT ISZERO PUSH2 0xED JUMPI PUSH1 0x0 DUP1 REVERT JUMPDEST DUP2 MLOAD PUSH1 0x1 PUSH1 0x1 PUSH1 0xA0 SHL SUB DUP2 AND DUP2 EQ PUSH2 0x104 JUMPI PUSH1 0x0 DUP1 REVERT JUMPDEST SWAP4 SWAP3 POP POP POP JUMP JUMPDEST PUSH2 0x10E2 DUP1 PUSH2 0x11A PUSH1 0x0 CODECOPY PUSH1 0x0 RETURN INVALID PUSH1 0x80 PUSH1 0x40 MSTORE PUSH1 0x4 CALLDATASIZE LT PUSH2 0xA7 JUMPI PUSH1 0x0 CALLDATALOAD PUSH1 0xE0 SHR DUP1 PUSH4 0x8C56DCAF GT PUSH2 0x64 JUMPI DUP1 PUSH4 0x8C56DCAF EQ PUSH2 0x153 JUMPI DUP1 PUSH4 0x8DA5CB5B EQ PUSH2 0x18B JUMPI DUP1 PUSH4 0xA14D4177 EQ PUSH2 0x1A9 JUMPI DUP1 PUSH4 0xC8653171 EQ PUSH2 0x1C9 JUMPI DUP1 PUSH4 0xF2FDE38B EQ PUSH2 0x1FB JUMPI DUP1 PUSH4 0xFAF5625F EQ PUSH2 0x21B JUMPI PUSH1 0x0 DUP1 REVERT JUMPDEST DUP1 PUSH4 0xE15D63F EQ PUSH2 0xAC JUMPI DUP1 PUSH4 0x166BAB95 EQ PUSH2 0xCE JUMPI DUP1 PUSH4 0x33F78D59 EQ PUSH2 0xE3 JUMPI DUP1 PUSH4 0x46F45B8D EQ PUSH2 0x10B JUMPI DUP1 PUSH4 0x715018A6 EQ PUSH2 0x11E JUMPI DUP1 PUSH4 0x894B8DF4 EQ PUSH2 0x133 JUMPI JUMPDEST PUSH1 0x0 DUP1 REVERT JUMPDEST CALLVALUE DUP1 ISZERO PUSH2 0xB8 JUMPI PUSH1 0x0 DUP1 REVERT JUMPDEST POP PUSH2 0xCC PUSH2 0xC7 CALLDATASIZE PUSH1 0x4 PUSH2 0xCFA JUMP JUMPDEST PUSH2 0x236 JUMP JUMPDEST STOP JUMPDEST CALLVALUE DUP1 ISZERO PUSH2 0xDA JUMPI PUSH1 0x0 DUP1 REVERT JUMPDEST POP PUSH2 0xCC PUSH2 0x4CD JUMP JUMPDEST CALLVALUE DUP1 ISZERO PUSH2 0xEF JUMPI PUSH1 0x0 DUP1 REVERT JUMPDEST POP PUSH2 0xF8 PUSH1 0x46 DUP2 JUMP JUMPDEST PUSH1 0x40 MLOAD SWAP1 DUP2 MSTORE PUSH1 0x20 ADD JUMPDEST PUSH1 0x40 MLOAD DUP1 SWAP2 SUB SWAP1 RETURN JUMPDEST PUSH2 0xCC PUSH2 0x119 CALLDATASIZE PUSH1 0x4 PUSH2 0xD54 JUMP JUMPDEST PUSH2 0x5C4 JUMP JUMPDEST CALLVALUE DUP1 ISZERO PUSH2 0x12A JUMPI PUSH1 0x0 DUP1 REVERT JUMPDEST POP PUSH2 0xCC PUSH2 0x7E9 JUMP JUMPDEST CALLVALUE DUP1 ISZERO PUSH2 0x13F JUMPI PUSH1 0x0 DUP1 REVERT JUMPDEST POP PUSH2 0xCC PUSH2 0x14E CALLDATASIZE PUSH1 0x4 PUSH2 0xCFA JUMP JUMPDEST PUSH2 0x7FD JUMP JUMPDEST CALLVALUE DUP1 ISZERO PUSH2 0x15F JUMPI PUSH1 0x0 DUP1 REVERT JUMPDEST POP PUSH1 0x3 SLOAD PUSH2 0x173 SWAP1 PUSH1 0x1 PUSH1 0x1 PUSH1 0xA0 SHL SUB AND DUP2 JUMP JUMPDEST PUSH1 0x40 MLOAD PUSH1 0x1 PUSH1 0x1 PUSH1 0xA0 SHL SUB SWAP1 SWAP2 AND DUP2 MSTORE PUSH1 0x20 ADD PUSH2 0x102 JUMP JUMPDEST CALLVALUE DUP1 ISZERO PUSH2 0x197 JUMPI PUSH1 0x0 DUP1 REVERT JUMPDEST POP PUSH1 0x1 SLOAD PUSH1 0x1 PUSH1 0x1 PUSH1 0xA0 SHL SUB AND PUSH2 0x173 JUMP JUMPDEST CALLVALUE DUP1 ISZERO PUSH2 0x1B5 JUMPI PUSH1 0x0 DUP1 REVERT JUMPDEST POP PUSH2 0xCC PUSH2 0x1C4 CALLDATASIZE PUSH1 0x4 PUSH2 0xD96 JUMP JUMPDEST PUSH2 0xA31 JUMP JUMPDEST CALLVALUE DUP1 ISZERO PUSH2 0x1D5 JUMPI PUSH1 0x0 DUP1 REVERT JUMPDEST POP PUSH2 0x1E9 PUSH2 0x1E4 CALLDATASIZE PUSH1 0x4 PUSH2 0xDCE JUMP JUMPDEST PUSH2 0xACB JUMP JUMPDEST PUSH1 0x40 MLOAD PUSH2 0x102 SWAP7 SWAP6 SWAP5 SWAP4 SWAP3 SWAP2 SWAP1 PUSH2 0xE90 JUMP JUMPDEST CALLVALUE DUP1 ISZERO PUSH2 0x207 JUMPI PUSH1 0x0 DUP1 REVERT JUMPDEST POP PUSH2 0xCC PUSH2 0x216 CALLDATASIZE PUSH1 0x4 PUSH2 0xD96 JUMP JUMPDEST PUSH2 0xBAE JUMP JUMPDEST CALLVALUE DUP1 ISZERO PUSH2 0x227 JUMPI PUSH1 0x0 DUP1 REVERT JUMPDEST POP PUSH2 0xF8 PUSH7 0x38D7EA4C68000 DUP2 JUMP JUMPDEST PUSH1 0x3 SLOAD PUSH1 0x1 PUSH1 0x1 PUSH1 0xA0 SHL SUB AND CALLER EQ PUSH2 0x295 JUMPI PUSH1 0x40 MLOAD PUSH3 0x461BCD PUSH1 0xE5 SHL DUP2 MSTORE PUSH1 0x20 PUSH1 0x4 DUP3 ADD MSTORE PUSH1 0x1F PUSH1 0x24 DUP3 ADD MSTORE PUSH32 0x4F6E6C79205445452063616E2063616C6C20746869732066756E6374696F6E00 PUSH1 0x44 DUP3 ADD MSTORE PUSH1 0x64 ADD JUMPDEST PUSH1 0x40 MLOAD DUP1 SWAP2 SUB SWAP1 REVERT JUMPDEST PUSH2 0x29D PUSH2 0xBEC JUMP JUMPDEST PUSH1 0x1 PUSH1 0x1 PUSH1 0xA0 SHL SUB DUP5 AND PUSH1 0x0 SWAP1 DUP2 MSTORE PUSH1 0x2 PUSH1 0x20 MSTORE PUSH1 0x40 DUP1 DUP3 KECCAK256 SWAP1 MLOAD PUSH2 0x2C5 SWAP1 DUP7 SWAP1 DUP7 SWAP1 PUSH2 0xF06 JUMP JUMPDEST SWAP1 DUP2 MSTORE PUSH1 0x20 ADD PUSH1 0x40 MLOAD DUP1 SWAP2 SUB SWAP1 KECCAK256 SWAP1 POP PUSH1 0x0 DUP2 PUSH1 0x0 ADD SLOAD GT PUSH2 0x321 JUMPI PUSH1 0x40 MLOAD PUSH3 0x461BCD PUSH1 0xE5 SHL DUP2 MSTORE PUSH1 0x20 PUSH1 0x4 DUP3 ADD MSTORE PUSH1 0x15 PUSH1 0x24 DUP3 ADD MSTORE PUSH21 0x139BC81858DD1A5D99481CDD185AD948199BDD5B99 PUSH1 0x5A SHL PUSH1 0x44 DUP3 ADD MSTORE PUSH1 0x64 ADD PUSH2 0x28C JUMP JUMPDEST PUSH1 0x3 DUP2 ADD SLOAD PUSH2 0x100 SWAP1 DIV PUSH1 0xFF AND ISZERO PUSH2 0x374 JUMPI PUSH1 0x40 MLOAD PUSH3 0x461BCD PUSH1 0xE5 SHL DUP2 MSTORE PUSH1 0x20 PUSH1 0x4 DUP3 ADD MSTORE PUSH1 0x16 PUSH1 0x24 DUP3 ADD MSTORE PUSH22 0x14DD185AD948185B1C9958591E481C99599D5B991959 PUSH1 0x52 SHL PUSH1 0x44 DUP3 ADD MSTORE PUSH1 0x64 ADD PUSH2 0x28C JUMP JUMPDEST PUSH1 0x0 PUSH1 0x46 DUP4 LT PUSH2 0x39F JUMPI DUP2 SLOAD PUSH1 0x64 SWAP1 PUSH2 0x38E SWAP1 PUSH1 0x50 PUSH2 0xF16 JUMP JUMPDEST PUSH2 0x398 SWAP2 SWAP1 PUSH2 0xF41 JUMP JUMPDEST SWAP1 POP PUSH2 0x3BC JUMP JUMPDEST DUP2 SLOAD PUSH1 0x64 SWAP1 PUSH2 0x3AF SWAP1 PUSH1 0x14 PUSH2 0xF16 JUMP JUMPDEST PUSH2 0x3B9 SWAP2 SWAP1 PUSH2 0xF41 JUMP JUMPDEST SWAP1 POP JUMPDEST PUSH1 0x3 DUP3 ADD DUP1 SLOAD PUSH2 0xFFFF NOT AND PUSH2 0x101 OR SWAP1 SSTORE PUSH1 0x40 MLOAD PUSH1 0x0 SWAP1 PUSH1 0x1 PUSH1 0x1 PUSH1 0xA0 SHL SUB DUP9 AND SWAP1 DUP4 SWAP1 DUP4 DUP2 DUP2 DUP2 DUP6 DUP8 GAS CALL SWAP3 POP POP POP RETURNDATASIZE DUP1 PUSH1 0x0 DUP2 EQ PUSH2 0x418 JUMPI PUSH1 0x40 MLOAD SWAP2 POP PUSH1 0x1F NOT PUSH1 0x3F RETURNDATASIZE ADD AND DUP3 ADD PUSH1 0x40 MSTORE RETURNDATASIZE DUP3 MSTORE RETURNDATASIZE PUSH1 0x0 PUSH1 0x20 DUP5 ADD RETURNDATACOPY PUSH2 0x41D JUMP JUMPDEST PUSH1 0x60 SWAP2 POP JUMPDEST POP POP SWAP1 POP DUP1 PUSH2 0x460 JUMPI PUSH1 0x40 MLOAD PUSH3 0x461BCD PUSH1 0xE5 SHL DUP2 MSTORE PUSH1 0x20 PUSH1 0x4 DUP3 ADD MSTORE PUSH1 0xF PUSH1 0x24 DUP3 ADD MSTORE PUSH15 0x151C985B9CD9995C8819985A5B1959 PUSH1 0x8A SHL PUSH1 0x44 DUP3 ADD MSTORE PUSH1 0x64 ADD PUSH2 0x28C JUMP JUMPDEST DUP6 DUP6 PUSH1 0x40 MLOAD PUSH2 0x470 SWAP3 SWAP2 SWAP1 PUSH2 0xF06 JUMP JUMPDEST PUSH1 0x40 DUP1 MLOAD SWAP2 DUP3 SWAP1 SUB DUP3 KECCAK256 DUP5 DUP4 MSTORE TIMESTAMP PUSH1 0x20 DUP5 ADD MSTORE SWAP2 PUSH1 0x1 PUSH1 0x1 PUSH1 0xA0 SHL SUB DUP11 AND SWAP2 PUSH32 0x9426D767E28C0A4734DA8BF6EE9CAA2A1401C005CB3FC663EF2300A824058022 SWAP2 ADD PUSH1 0x40 MLOAD DUP1 SWAP2 SUB SWAP1 LOG3 POP POP POP PUSH2 0x4C7 PUSH1 0x1 PUSH1 0x0 SSTORE JUMP JUMPDEST POP POP POP POP JUMP JUMPDEST PUSH2 0x4D5 PUSH2 0xC16 JUMP JUMPDEST SELFBALANCE DUP1 PUSH2 0x51A JUMPI PUSH1 0x40 MLOAD PUSH3 0x461BCD PUSH1 0xE5 SHL DUP2 MSTORE PUSH1 0x20 PUSH1 0x4 DUP3 ADD MSTORE PUSH1 0x14 PUSH1 0x24 DUP3 ADD MSTORE PUSH20 0x4E6F2066756E647320746F207769746864726177 PUSH1 0x60 SHL PUSH1 0x44 DUP3 ADD MSTORE PUSH1 0x64 ADD PUSH2 0x28C JUMP JUMPDEST PUSH1 0x0 PUSH2 0x52E PUSH1 0x1 SLOAD PUSH1 0x1 PUSH1 0x1 PUSH1 0xA0 SHL SUB AND SWAP1 JUMP JUMPDEST PUSH1 0x1 PUSH1 0x1 PUSH1 0xA0 SHL SUB AND DUP3 PUSH1 0x40 MLOAD PUSH1 0x0 PUSH1 0x40 MLOAD DUP1 DUP4 SUB DUP2 DUP6 DUP8 GAS CALL SWAP3 POP POP POP RETURNDATASIZE DUP1 PUSH1 0x0 DUP2 EQ PUSH2 0x578 JUMPI PUSH1 0x40 MLOAD SWAP2 POP PUSH1 0x1F NOT PUSH1 0x3F RETURNDATASIZE ADD AND DUP3 ADD PUSH1 0x40 MSTORE RETURNDATASIZE DUP3 MSTORE RETURNDATASIZE PUSH1 0x0 PUSH1 0x20 DUP5 ADD RETURNDATACOPY PUSH2 0x57D JUMP JUMPDEST PUSH1 0x60 SWAP2 POP JUMPDEST POP POP SWAP1 POP DUP1 PUSH2 0x5C0 JUMPI PUSH1 0x40 MLOAD PUSH3 0x461BCD PUSH1 0xE5 SHL DUP2 MSTORE PUSH1 0x20 PUSH1 0x4 DUP3 ADD MSTORE PUSH1 0xF PUSH1 0x24 DUP3 ADD MSTORE PUSH15 0x151C985B9CD9995C8819985A5B1959 PUSH1 0x8A SHL PUSH1 0x44 DUP3 ADD MSTORE PUSH1 0x64 ADD PUSH2 0x28C JUMP JUMPDEST POP POP JUMP JUMPDEST PUSH2 0x5CC PUSH2 0xBEC JUMP JUMPDEST PUSH7 0x38D7EA4C68000 CALLVALUE EQ PUSH2 0x61B JUMPI PUSH1 0x40 MLOAD PUSH3 0x461BCD PUSH1 0xE5 SHL DUP2 MSTORE PUSH1 0x20 PUSH1 0x4 DUP3 ADD MSTORE PUSH1 0x16 PUSH1 0x24 DUP3 ADD MSTORE PUSH22 0x125B98DBDC9C9958DD081CDD185AD948185B5BDD5B9D PUSH1 0x52 SHL PUSH1 0x44 DUP3 ADD MSTORE PUSH1 0x64 ADD PUSH2 0x28C JUMP JUMPDEST CALLER PUSH1 0x0 SWAP1 DUP2 MSTORE PUSH1 0x2 PUSH1 0x20 MSTORE PUSH1 0x40 SWAP1 DUP2 SWAP1 KECCAK256 SWAP1 MLOAD PUSH2 0x63B SWAP1 DUP5 SWAP1 DUP5 SWAP1 PUSH2 0xF06 JUMP JUMPDEST SWAP1 DUP2 MSTORE PUSH1 0x40 MLOAD SWAP1 DUP2 SWAP1 SUB PUSH1 0x20 ADD SWAP1 KECCAK256 SLOAD ISZERO PUSH2 0x698 JUMPI PUSH1 0x40 MLOAD PUSH3 0x461BCD PUSH1 0xE5 SHL DUP2 MSTORE PUSH1 0x20 PUSH1 0x4 DUP3 ADD MSTORE PUSH1 0x1D PUSH1 0x24 DUP3 ADD MSTORE PUSH32 0x416C7265616479207374616B656420666F72207468697320736B696C6C000000 PUSH1 0x44 DUP3 ADD MSTORE PUSH1 0x64 ADD PUSH2 0x28C JUMP JUMPDEST PUSH1 0x40 MLOAD DUP1 PUSH1 0xC0 ADD PUSH1 0x40 MSTORE DUP1 CALLVALUE DUP2 MSTORE PUSH1 0x20 ADD TIMESTAMP DUP2 MSTORE PUSH1 0x20 ADD PUSH1 0x0 DUP2 MSTORE PUSH1 0x20 ADD PUSH1 0x0 ISZERO ISZERO DUP2 MSTORE PUSH1 0x20 ADD PUSH1 0x0 ISZERO ISZERO DUP2 MSTORE PUSH1 0x20 ADD DUP4 DUP4 DUP1 DUP1 PUSH1 0x1F ADD PUSH1 0x20 DUP1 SWAP2 DIV MUL PUSH1 0x20 ADD PUSH1 0x40 MLOAD SWAP1 DUP2 ADD PUSH1 0x40 MSTORE DUP1 SWAP4 SWAP3 SWAP2 SWAP1 DUP2 DUP2 MSTORE PUSH1 0x20 ADD DUP4 DUP4 DUP1 DUP3 DUP5 CALLDATACOPY PUSH1 0x0 SWAP3 ADD DUP3 SWAP1 MSTORE POP SWAP4 SWAP1 SWAP5 MSTORE POP POP CALLER DUP2 MSTORE PUSH1 0x2 PUSH1 0x20 MSTORE PUSH1 0x40 SWAP1 DUP2 SWAP1 KECCAK256 SWAP1 MLOAD SWAP1 SWAP2 POP PUSH2 0x720 SWAP1 DUP6 SWAP1 DUP6 SWAP1 PUSH2 0xF06 JUMP JUMPDEST SWAP1 DUP2 MSTORE PUSH1 0x40 DUP1 MLOAD SWAP2 DUP3 SWAP1 SUB PUSH1 0x20 SWAP1 DUP2 ADD SWAP1 SWAP3 KECCAK256 DUP4 MLOAD DUP2 SSTORE SWAP2 DUP4 ADD MLOAD PUSH1 0x1 DUP4 ADD SSTORE DUP3 ADD MLOAD PUSH1 0x2 DUP3 ADD SSTORE PUSH1 0x60 DUP3 ADD MLOAD PUSH1 0x3 DUP3 ADD DUP1 SLOAD PUSH1 0x80 DUP6 ADD MLOAD ISZERO ISZERO PUSH2 0x100 MUL PUSH2 0xFF00 NOT SWAP4 ISZERO ISZERO SWAP4 SWAP1 SWAP4 AND PUSH2 0xFFFF NOT SWAP1 SWAP2 AND OR SWAP2 SWAP1 SWAP2 OR SWAP1 SSTORE PUSH1 0xA0 DUP3 ADD MLOAD PUSH1 0x4 DUP3 ADD SWAP1 PUSH2 0x78B SWAP1 DUP3 PUSH2 0xFEC JUMP JUMPDEST POP POP PUSH1 0x40 MLOAD PUSH2 0x79E SWAP2 POP DUP4 SWAP1 DUP4 SWAP1 PUSH2 0xF06 JUMP JUMPDEST PUSH1 0x40 DUP1 MLOAD SWAP2 DUP3 SWAP1 SUB DUP3 KECCAK256 CALLVALUE DUP4 MSTORE TIMESTAMP PUSH1 0x20 DUP5 ADD MSTORE SWAP2 CALLER SWAP2 PUSH32 0xE8A7E74A857C2DD1F92E8AC287FC09532FB7A97C72942ED545CFE1538C5D9192 SWAP2 ADD PUSH1 0x40 MLOAD DUP1 SWAP2 SUB SWAP1 LOG3 PUSH2 0x5C0 PUSH1 0x1 PUSH1 0x0 SSTORE JUMP JUMPDEST PUSH2 0x7F1 PUSH2 0xC16 JUMP JUMPDEST PUSH2 0x7FB PUSH1 0x0 PUSH2 0xC43 JUMP JUMPDEST JUMP JUMPDEST PUSH1 0x3 SLOAD PUSH1 0x1 PUSH1 0x1 PUSH1 0xA0 SHL SUB AND CALLER EQ PUSH2 0x857 JUMPI PUSH1 0x40 MLOAD PUSH3 0x461BCD PUSH1 0xE5 SHL DUP2 MSTORE PUSH1 0x20 PUSH1 0x4 DUP3 ADD MSTORE PUSH1 0x1F PUSH1 0x24 DUP3 ADD MSTORE PUSH32 0x4F6E6C79205445452063616E2063616C6C20746869732066756E6374696F6E00 PUSH1 0x44 DUP3 ADD MSTORE PUSH1 0x64 ADD PUSH2 0x28C JUMP JUMPDEST PUSH1 0x1 PUSH1 0x1 PUSH1 0xA0 SHL SUB DUP5 AND PUSH1 0x0 SWAP1 DUP2 MSTORE PUSH1 0x2 PUSH1 0x20 MSTORE PUSH1 0x40 DUP1 DUP3 KECCAK256 SWAP1 MLOAD PUSH2 0x87F SWAP1 DUP7 SWAP1 DUP7 SWAP1 PUSH2 0xF06 JUMP JUMPDEST SWAP1 DUP2 MSTORE PUSH1 0x20 ADD PUSH1 0x40 MLOAD DUP1 SWAP2 SUB SWAP1 KECCAK256 SWAP1 POP PUSH1 0x0 DUP2 PUSH1 0x0 ADD SLOAD GT PUSH2 0x8DB JUMPI PUSH1 0x40 MLOAD PUSH3 0x461BCD PUSH1 0xE5 SHL DUP2 MSTORE PUSH1 0x20 PUSH1 0x4 DUP3 ADD MSTORE PUSH1 0x15 PUSH1 0x24 DUP3 ADD MSTORE PUSH21 0x139BC81858DD1A5D99481CDD185AD948199BDD5B99 PUSH1 0x5A SHL PUSH1 0x44 DUP3 ADD MSTORE PUSH1 0x64 ADD PUSH2 0x28C JUMP JUMPDEST PUSH1 0x3 DUP2 ADD SLOAD PUSH2 0x100 SWAP1 DIV PUSH1 0xFF AND ISZERO PUSH2 0x92E JUMPI PUSH1 0x40 MLOAD PUSH3 0x461BCD PUSH1 0xE5 SHL DUP2 MSTORE PUSH1 0x20 PUSH1 0x4 DUP3 ADD MSTORE PUSH1 0x16 PUSH1 0x24 DUP3 ADD MSTORE PUSH22 0x14DD185AD948185B1C9958591E481C99599D5B991959 PUSH1 0x52 SHL PUSH1 0x44 DUP3 ADD MSTORE PUSH1 0x64 ADD PUSH2 0x28C JUMP JUMPDEST DUP1 PUSH1 0x2 ADD SLOAD DUP3 GT PUSH2 0x981 JUMPI PUSH1 0x40 MLOAD PUSH3 0x461BCD PUSH1 0xE5 SHL DUP2 MSTORE PUSH1 0x20 PUSH1 0x4 DUP3 ADD MSTORE PUSH1 0x1A PUSH1 0x24 DUP3 ADD MSTORE PUSH32 0x4D696C6573746F6E6520616C7265616479207265636F72646564000000000000 PUSH1 0x44 DUP3 ADD MSTORE PUSH1 0x64 ADD PUSH2 0x28C JUMP JUMPDEST PUSH1 0x5 DUP3 GT ISZERO PUSH2 0x9C9 JUMPI PUSH1 0x40 MLOAD PUSH3 0x461BCD PUSH1 0xE5 SHL DUP2 MSTORE PUSH1 0x20 PUSH1 0x4 DUP3 ADD MSTORE PUSH1 0x14 PUSH1 0x24 DUP3 ADD MSTORE PUSH20 0x125B9D985B1A59081B5A5B195CDD1BDB99481251 PUSH1 0x62 SHL PUSH1 0x44 DUP3 ADD MSTORE PUSH1 0x64 ADD PUSH2 0x28C JUMP JUMPDEST PUSH1 0x2 DUP2 ADD DUP3 SWAP1 SSTORE PUSH1 0x40 MLOAD PUSH2 0x9E0 SWAP1 DUP6 SWAP1 DUP6 SWAP1 PUSH2 0xF06 JUMP JUMPDEST PUSH1 0x40 DUP1 MLOAD SWAP2 DUP3 SWAP1 SUB DUP3 KECCAK256 DUP5 DUP4 MSTORE TIMESTAMP PUSH1 0x20 DUP5 ADD MSTORE SWAP2 PUSH1 0x1 PUSH1 0x1 PUSH1 0xA0 SHL SUB DUP9 AND SWAP2 PUSH32 0x3C8CC3A9EBF0B6CFA6C3083A5188AFB5F2F4F4D8A547D4F452EE1E917D6D731 SWAP2 ADD PUSH1 0x40 MLOAD DUP1 SWAP2 SUB SWAP1 LOG3 POP POP POP POP POP JUMP JUMPDEST PUSH2 0xA39 PUSH2 0xC16 JUMP JUMPDEST PUSH1 0x1 PUSH1 0x1 PUSH1 0xA0 SHL SUB DUP2 AND PUSH2 0xA81 JUMPI PUSH1 0x40 MLOAD PUSH3 0x461BCD PUSH1 0xE5 SHL DUP2 MSTORE PUSH1 0x20 PUSH1 0x4 DUP3 ADD MSTORE PUSH1 0xF PUSH1 0x24 DUP3 ADD MSTORE PUSH15 0x496E76616C69642061646472657373 PUSH1 0x88 SHL PUSH1 0x44 DUP3 ADD MSTORE PUSH1 0x64 ADD PUSH2 0x28C JUMP JUMPDEST PUSH1 0x3 DUP1 SLOAD PUSH1 0x1 PUSH1 0x1 PUSH1 0xA0 SHL SUB NOT AND PUSH1 0x1 PUSH1 0x1 PUSH1 0xA0 SHL SUB DUP4 AND SWAP1 DUP2 OR SWAP1 SWAP2 SSTORE PUSH1 0x40 MLOAD PUSH32 0x4086BA3DBEB84969428365CDF18F4ACE5E3DAB8E5394457C6B47881986F78DD5 SWAP1 PUSH1 0x0 SWAP1 LOG2 POP JUMP JUMPDEST PUSH1 0x2 PUSH1 0x20 DUP2 DUP2 MSTORE PUSH1 0x0 SWAP4 DUP5 MSTORE PUSH1 0x40 SWAP1 SWAP4 KECCAK256 DUP3 MLOAD DUP1 DUP5 ADD DUP6 ADD DUP1 MLOAD SWAP3 DUP2 MSTORE SWAP1 DUP6 ADD SWAP4 SWAP1 SWAP5 ADD SWAP3 SWAP1 SWAP3 KECCAK256 SWAP2 SWAP1 SWAP3 MSTORE DUP1 SLOAD PUSH1 0x1 DUP3 ADD SLOAD SWAP3 DUP3 ADD SLOAD PUSH1 0x3 DUP4 ADD SLOAD PUSH1 0x4 DUP5 ADD DUP1 SLOAD SWAP4 SWAP6 SWAP5 SWAP3 SWAP4 PUSH1 0xFF DUP1 DUP5 AND SWAP5 PUSH2 0x100 SWAP1 SWAP5 DIV AND SWAP3 SWAP2 SWAP1 PUSH2 0xB2B SWAP1 PUSH2 0xF63 JUMP JUMPDEST DUP1 PUSH1 0x1F ADD PUSH1 0x20 DUP1 SWAP2 DIV MUL PUSH1 0x20 ADD PUSH1 0x40 MLOAD SWAP1 DUP2 ADD PUSH1 0x40 MSTORE DUP1 SWAP3 SWAP2 SWAP1 DUP2 DUP2 MSTORE PUSH1 0x20 ADD DUP3 DUP1 SLOAD PUSH2 0xB57 SWAP1 PUSH2 0xF63 JUMP JUMPDEST DUP1 ISZERO PUSH2 0xBA4 JUMPI DUP1 PUSH1 0x1F LT PUSH2 0xB79 JUMPI PUSH2 0x100 DUP1 DUP4 SLOAD DIV MUL DUP4 MSTORE SWAP2 PUSH1 0x20 ADD SWAP2 PUSH2 0xBA4 JUMP JUMPDEST DUP3 ADD SWAP2 SWAP1 PUSH1 0x0 MSTORE PUSH1 0x20 PUSH1 0x0 KECCAK256 SWAP1 JUMPDEST DUP2 SLOAD DUP2 MSTORE SWAP1 PUSH1 0x1 ADD SWAP1 PUSH1 0x20 ADD DUP1 DUP4 GT PUSH2 0xB87 JUMPI DUP3 SWAP1 SUB PUSH1 0x1F AND DUP3 ADD SWAP2 JUMPDEST POP POP POP POP POP SWAP1 POP DUP7 JUMP JUMPDEST PUSH2 0xBB6 PUSH2 0xC16 JUMP JUMPDEST PUSH1 0x1 PUSH1 0x1 PUSH1 0xA0 SHL SUB DUP2 AND PUSH2 0xBE0 JUMPI PUSH1 0x40 MLOAD PUSH4 0x1E4FBDF7 PUSH1 0xE0 SHL DUP2 MSTORE PUSH1 0x0 PUSH1 0x4 DUP3 ADD MSTORE PUSH1 0x24 ADD PUSH2 0x28C JUMP JUMPDEST PUSH2 0xBE9 DUP2 PUSH2 0xC43 JUMP JUMPDEST POP JUMP JUMPDEST PUSH1 0x2 PUSH1 0x0 SLOAD SUB PUSH2 0xC0F JUMPI PUSH1 0x40 MLOAD PUSH4 0x3EE5AEB5 PUSH1 0xE0 SHL DUP2 MSTORE PUSH1 0x4 ADD PUSH1 0x40 MLOAD DUP1 SWAP2 SUB SWAP1 REVERT JUMPDEST PUSH1 0x2 PUSH1 0x0 SSTORE JUMP JUMPDEST PUSH1 0x1 SLOAD PUSH1 0x1 PUSH1 0x1 PUSH1 0xA0 SHL SUB AND CALLER EQ PUSH2 0x7FB JUMPI PUSH1 0x40 MLOAD PUSH4 0x118CDAA7 PUSH1 0xE0 SHL DUP2 MSTORE CALLER PUSH1 0x4 DUP3 ADD MSTORE PUSH1 0x24 ADD PUSH2 0x28C JUMP JUMPDEST PUSH1 0x1 DUP1 SLOAD PUSH1 0x1 PUSH1 0x1 PUSH1 0xA0 SHL SUB DUP4 DUP2 AND PUSH1 0x1 PUSH1 0x1 PUSH1 0xA0 SHL SUB NOT DUP4 AND DUP2 OR SWAP1 SWAP4 SSTORE PUSH1 0x40 MLOAD SWAP2 AND SWAP2 SWAP1 DUP3 SWAP1 PUSH32 0x8BE0079C531659141344CD1FD0A4F28419497F9722A3DAAFE3B4186F6B6457E0 SWAP1 PUSH1 0x0 SWAP1 LOG3 POP POP JUMP JUMPDEST DUP1 CALLDATALOAD PUSH1 0x1 PUSH1 0x1 PUSH1 0xA0 SHL SUB DUP2 AND DUP2 EQ PUSH2 0xCAC JUMPI PUSH1 0x0 DUP1 REVERT JUMPDEST SWAP2 SWAP1 POP JUMP JUMPDEST PUSH1 0x0 DUP1 DUP4 PUSH1 0x1F DUP5 ADD SLT PUSH2 0xCC3 JUMPI PUSH1 0x0 DUP1 REVERT JUMPDEST POP DUP2 CALLDATALOAD PUSH8 0xFFFFFFFFFFFFFFFF DUP2 GT ISZERO PUSH2 0xCDB JUMPI PUSH1 0x0 DUP1 REVERT JUMPDEST PUSH1 0x20 DUP4 ADD SWAP2 POP DUP4 PUSH1 0x20 DUP3 DUP6 ADD ADD GT ISZERO PUSH2 0xCF3 JUMPI PUSH1 0x0 DUP1 REVERT JUMPDEST SWAP3 POP SWAP3 SWAP1 POP JUMP JUMPDEST PUSH1 0x0 DUP1 PUSH1 0x0 DUP1 PUSH1 0x60 DUP6 DUP8 SUB SLT ISZERO PUSH2 0xD10 JUMPI PUSH1 0x0 DUP1 REVERT JUMPDEST PUSH2 0xD19 DUP6 PUSH2 0xC95 JUMP JUMPDEST SWAP4 POP PUSH1 0x20 DUP6 ADD CALLDATALOAD PUSH8 0xFFFFFFFFFFFFFFFF DUP2 GT ISZERO PUSH2 0xD35 JUMPI PUSH1 0x0 DUP1 REVERT JUMPDEST PUSH2 0xD41 DUP8 DUP3 DUP9 ADD PUSH2 0xCB1 JUMP JUMPDEST SWAP6 SWAP9 SWAP1 SWAP8 POP SWAP5 SWAP6 PUSH1 0x40 ADD CALLDATALOAD SWAP5 SWAP4 POP POP POP POP JUMP JUMPDEST PUSH1 0x0 DUP1 PUSH1 0x20 DUP4 DUP6 SUB SLT ISZERO PUSH2 0xD67 JUMPI PUSH1 0x0 DUP1 REVERT JUMPDEST DUP3 CALLDATALOAD PUSH8 0xFFFFFFFFFFFFFFFF DUP2 GT ISZERO PUSH2 0xD7E JUMPI PUSH1 0x0 DUP1 REVERT JUMPDEST PUSH2 0xD8A DUP6 DUP3 DUP7 ADD PUSH2 0xCB1 JUMP JUMPDEST SWAP1 SWAP7 SWAP1 SWAP6 POP SWAP4 POP POP POP POP JUMP JUMPDEST PUSH1 0x0 PUSH1 0x20 DUP3 DUP5 SUB SLT ISZERO PUSH2 0xDA8 JUMPI PUSH1 0x0 DUP1 REVERT JUMPDEST PUSH2 0xDB1 DUP3 PUSH2 0xC95 JUMP JUMPDEST SWAP4 SWAP3 POP POP POP JUMP JUMPDEST PUSH4 0x4E487B71 PUSH1 0xE0 SHL PUSH1 0x0 MSTORE PUSH1 0x41 PUSH1 0x4 MSTORE PUSH1 0x24 PUSH1 0x0 REVERT JUMPDEST PUSH1 0x0 DUP1 PUSH1 0x40 DUP4 DUP6 SUB SLT ISZERO PUSH2 0xDE1 JUMPI PUSH1 0x0 DUP1 REVERT JUMPDEST PUSH2 0xDEA DUP4 PUSH2 0xC95 JUMP JUMPDEST SWAP2 POP PUSH1 0x20 DUP4 ADD CALLDATALOAD PUSH8 0xFFFFFFFFFFFFFFFF DUP1 DUP3 GT ISZERO PUSH2 0xE07 JUMPI PUSH1 0x0 DUP1 REVERT JUMPDEST DUP2 DUP6 ADD SWAP2 POP DUP6 PUSH1 0x1F DUP4 ADD SLT PUSH2 0xE1B JUMPI PUSH1 0x0 DUP1 REVERT JUMPDEST DUP2 CALLDATALOAD DUP2 DUP2 GT ISZERO PUSH2 0xE2D JUMPI PUSH2 0xE2D PUSH2 0xDB8 JUMP JUMPDEST PUSH1 0x40 MLOAD PUSH1 0x1F DUP3 ADD PUSH1 0x1F NOT SWAP1 DUP2 AND PUSH1 0x3F ADD AND DUP2 ADD SWAP1 DUP4 DUP3 GT DUP2 DUP4 LT OR ISZERO PUSH2 0xE55 JUMPI PUSH2 0xE55 PUSH2 0xDB8 JUMP JUMPDEST DUP2 PUSH1 0x40 MSTORE DUP3 DUP2 MSTORE DUP9 PUSH1 0x20 DUP5 DUP8 ADD ADD GT ISZERO PUSH2 0xE6E JUMPI PUSH1 0x0 DUP1 REVERT JUMPDEST DUP3 PUSH1 0x20 DUP7 ADD PUSH1 0x20 DUP4 ADD CALLDATACOPY PUSH1 0x0 PUSH1 0x20 DUP5 DUP4 ADD ADD MSTORE DUP1 SWAP6 POP POP POP POP POP POP SWAP3 POP SWAP3 SWAP1 POP JUMP JUMPDEST DUP7 DUP2 MSTORE PUSH1 0x0 PUSH1 0x20 DUP8 DUP2 DUP5 ADD MSTORE DUP7 PUSH1 0x40 DUP5 ADD MSTORE DUP6 ISZERO ISZERO PUSH1 0x60 DUP5 ADD MSTORE DUP5 ISZERO ISZERO PUSH1 0x80 DUP5 ADD MSTORE PUSH1 0xC0 PUSH1 0xA0 DUP5 ADD MSTORE DUP4 MLOAD DUP1 PUSH1 0xC0 DUP6 ADD MSTORE PUSH1 0x0 JUMPDEST DUP2 DUP2 LT ISZERO PUSH2 0xEE0 JUMPI DUP6 DUP2 ADD DUP4 ADD MLOAD DUP6 DUP3 ADD PUSH1 0xE0 ADD MSTORE DUP3 ADD PUSH2 0xEC4 JUMP JUMPDEST POP PUSH1 0x0 PUSH1 0xE0 DUP3 DUP7 ADD ADD MSTORE PUSH1 0xE0 PUSH1 0x1F NOT PUSH1 0x1F DUP4 ADD AND DUP6 ADD ADD SWAP3 POP POP POP SWAP8 SWAP7 POP POP POP POP POP POP POP JUMP JUMPDEST DUP2 DUP4 DUP3 CALLDATACOPY PUSH1 0x0 SWAP2 ADD SWAP1 DUP2 MSTORE SWAP2 SWAP1 POP JUMP JUMPDEST DUP1 DUP3 MUL DUP2 ISZERO DUP3 DUP3 DIV DUP5 EQ OR PUSH2 0xF3B JUMPI PUSH4 0x4E487B71 PUSH1 0xE0 SHL PUSH1 0x0 MSTORE PUSH1 0x11 PUSH1 0x4 MSTORE PUSH1 0x24 PUSH1 0x0 REVERT JUMPDEST SWAP3 SWAP2 POP POP JUMP JUMPDEST PUSH1 0x0 DUP3 PUSH2 0xF5E JUMPI PUSH4 0x4E487B71 PUSH1 0xE0 SHL PUSH1 0x0 MSTORE PUSH1 0x12 PUSH1 0x4 MSTORE PUSH1 0x24 PUSH1 0x0 REVERT JUMPDEST POP DIV SWAP1 JUMP JUMPDEST PUSH1 0x1 DUP2 DUP2 SHR SWAP1 DUP3 AND DUP1 PUSH2 0xF77 JUMPI PUSH1 0x7F DUP3 AND SWAP2 POP JUMPDEST PUSH1 0x20 DUP3 LT DUP2 SUB PUSH2 0xF97 JUMPI PUSH4 0x4E487B71 PUSH1 0xE0 SHL PUSH1 0x0 MSTORE PUSH1 0x22 PUSH1 0x4 MSTORE PUSH1 0x24 PUSH1 0x0 REVERT JUMPDEST POP SWAP2 SWAP1 POP JUMP JUMPDEST PUSH1 0x1F DUP3 GT ISZERO PUSH2 0xFE7 JUMPI PUSH1 0x0 DUP2 DUP2 MSTORE PUSH1 0x20 DUP2 KECCAK256 PUSH1 0x1F DUP6 ADD PUSH1 0x5 SHR DUP2 ADD PUSH1 0x20 DUP7 LT ISZERO PUSH2 0xFC4 JUMPI POP DUP1 JUMPDEST PUSH1 0x1F DUP6 ADD PUSH1 0x5 SHR DUP3 ADD SWAP2 POP JUMPDEST DUP2 DUP2 LT ISZERO PUSH2 0xFE3 JUMPI DUP3 DUP2 SSTORE PUSH1 0x1 ADD PUSH2 0xFD0 JUMP JUMPDEST POP POP POP JUMPDEST POP POP POP JUMP JUMPDEST DUP2 MLOAD PUSH8 0xFFFFFFFFFFFFFFFF DUP2 GT ISZERO PUSH2 0x1006 JUMPI PUSH2 0x1006 PUSH2 0xDB8 JUMP JUMPDEST PUSH2 0x101A DUP2 PUSH2 0x1014 DUP5 SLOAD PUSH2 0xF63 JUMP JUMPDEST DUP5 PUSH2 0xF9D JUMP JUMPDEST PUSH1 0x20 DUP1 PUSH1 0x1F DUP4 GT PUSH1 0x1 DUP2 EQ PUSH2 0x104F JUMPI PUSH1 0x0 DUP5 ISZERO PUSH2 0x1037 JUMPI POP DUP6 DUP4 ADD MLOAD JUMPDEST PUSH1 0x0 NOT PUSH1 0x3 DUP7 SWAP1 SHL SHR NOT AND PUSH1 0x1 DUP6 SWAP1 SHL OR DUP6 SSTORE PUSH2 0xFE3 JUMP JUMPDEST PUSH1 0x0 DUP6 DUP2 MSTORE PUSH1 0x20 DUP2 KECCAK256 PUSH1 0x1F NOT DUP7 AND SWAP2 JUMPDEST DUP3 DUP2 LT ISZERO PUSH2 0x107E JUMPI DUP9 DUP7 ADD MLOAD DUP3 SSTORE SWAP5 DUP5 ADD SWAP5 PUSH1 0x1 SWAP1 SWAP2 ADD SWAP1 DUP5 ADD PUSH2 0x105F JUMP JUMPDEST POP DUP6 DUP3 LT ISZERO PUSH2 0x109C JUMPI DUP8 DUP6 ADD MLOAD PUSH1 0x0 NOT PUSH1 0x3 DUP9 SWAP1 SHL PUSH1 0xF8 AND SHR NOT AND DUP2 SSTORE JUMPDEST POP POP POP POP POP PUSH1 0x1 SWAP1 DUP2 SHL ADD SWAP1 SSTORE POP JUMP INVALID LOG2 PUSH5 0x6970667358 0x22 SLT KECCAK256 0xAB CALLDATACOPY PUSH17 0x5805480A506E4C69E13F218D33B9DA22B9 PUSH10 0xD322C81F5734F919977A POP PUSH5 0x736F6C6343 STOP ADDMOD EQ STOP CALLER "},"methodIdentifiers":{"PASS_THRESHOLD()":"33f78d59","STAKE_AMOUNT()":"faf5625f","claimRefund(address,string,uint256)":"0e15d63f","owner()":"8da5cb5b","recordMilestone(address,string,uint256)":"894b8df4","renounceOwnership()":"715018a6","stake(string)":"46f45b8d","stakes(address,string)":"c8653171","teeAttestor()":"8c56dcaf","transferOwnership(address)":"f2fde38b","updateTEEAttestor(address)":"a14d4177","withdrawTreasury()":"166bab95"}}}}}