{
  "_format": "hh-sol-artifact-1",
  "contractName": "SkillAttestation",
  "sourceName": "contracts/SkillAttestation.sol",
  "abi": [
    {
      "inputs": [
        {
          "internalType": "address",
          "name": "_teeSigner",
          "type": "address"
        }
      ],
      "stateMutability": "nonpayable",
      "type": "constructor"
    },
    {
      "inputs": [],
      "name": "ECDSAInvalidSignature",
      "type": "error"
    },
    {
      "inputs": [
        {
          "internalType": "uint256",
          "name": "length",
          "type": "uint256"
        }
      ],
      "name": "ECDSAInvalidSignatureLength",
      "type": "error"
    },
    {
      "inputs": [
        {
          "internalType": "bytes32",
          "name": "s",
          "type": "bytes32"
        }
      ],
      "name": "ECDSAInvalidSignatureS",
      "type": "error"
    },
    {
      "inputs": [],
      "name": "InvalidShortString",
      "type": "error"
    },
    {
      "inputs": [
        {
          "internalType": "address",
          "name": "owner",
          "type": "address"
        }
      ],
      "name": "OwnableInvalidOwner",
      "type": "error"
    },
    {
      "inputs": [
        {
          "internalType": "address",
          "name": "account",
          "type": "address"
        }
      ],
      "name": "OwnableUnauthorizedAccount",
      "type": "error"
    },
    {
      "inputs": [
        {
          "internalType": "string",
          "name": "str",
          "type": "string"
        }
      ],
      "name": "StringTooLong",
      "type": "error"
    },
    {
      "anonymous": false,
      "inputs": [
        {
          "indexed": true,
          "internalType": "address",
          "name": "user",
          "type": "address"
        },
        {
          "indexed": true,
          "internalType": "string",
          "name": "skill",
          "type": "string"
        },
        {
          "indexed": false,
          "internalType": "uint256",
          "name": "score",
          "type": "uint256"
        },
        {
          "indexed": false,
          "internalType": "uint256",
          "name": "timestamp",
          "type": "uint256"
        }
      ],
      "name": "AttestationSubmitted",
      "type": "event"
    },
    {
      "anonymous": false,
      "inputs": [],
      "name": "EIP712DomainChanged",
      "type": "event"
    },
    {
      "anonymous": false,
      "inputs": [
        {
          "indexed": true,
          "internalType": "address",
          "name": "previousOwner",
          "type": "address"
        },
        {
          "indexed": true,
          "internalType": "address",
          "name": "newOwner",
          "type": "address"
        }
      ],
      "name": "OwnershipTransferred",
      "type": "event"
    },
    {
      "anonymous": false,
      "inputs": [
        {
          "indexed": true,
          "internalType": "address",
          "name": "newStakingContract",
          "type": "address"
        }
      ],
      "name": "StakingContractUpdated",
      "type": "event"
    },
    {
      "anonymous": false,
      "inputs": [
        {
          "indexed": true,
          "internalType": "address",
          "name": "newSigner",
          "type": "address"
        }
      ],
      "name": "TEESignerUpdated",
      "type": "event"
    },
    {
      "inputs": [
        {
          "internalType": "address",
          "name": "",
          "type": "address"
        },
        {
          "internalType": "string",
          "name": "",
          "type": "string"
        }
      ],
      "name": "attestations",
      "outputs": [
        {
          "internalType": "uint256",
          "name": "score",
          "type": "uint256"
        },
        {
          "internalType": "uint256",
          "name": "timestamp",
          "type": "uint256"
        },
        {
          "internalType": "bytes",
          "name": "signature",
          "type": "bytes"
        },
        {
          "internalType": "string",
          "name": "ipfsHash",
          "type": "string"
        },
        {
          "internalType": "bool",
          "name": "exists",
          "type": "bool"
        }
      ],
      "stateMutability": "view",
      "type": "function"
    },
    {
      "inputs": [],
      "name": "eip712Domain",
      "outputs": [
        {
          "internalType": "bytes1",
          "name": "fields",
          "type": "bytes1"
        },
        {
          "internalType": "string",
          "name": "name",
          "type": "string"
        },
        {
          "internalType": "string",
          "name": "version",
          "type": "string"
        },
        {
          "internalType": "uint256",
          "name": "chainId",
          "type": "uint256"
        },
        {
          "internalType": "address",
          "name": "verifyingContract",
          "type": "address"
        },
        {
          "internalType": "bytes32",
          "name": "salt",
          "type": "bytes32"
        },
        {
          "internalType": "uint256[]",
          "name": "extensions",
          "type": "uint256[]"
        }
      ],
      "stateMutability": "view",
      "type": "function"
    },
    {
      "inputs": [
        {
          "internalType": "address",
          "name": "user",
          "type": "address"
        }
      ],
      "name": "getAttestationHistory",
      "outputs": [
        {
          "internalType": "string[]",
          "name": "",
          "type": "string[]"
        }
      ],
      "stateMutability": "view",
      "type": "function"
    },
    {
      "inputs": [],
      "name": "owner",
      "outputs": [
        {
          "internalType": "address",
          "name": "",
          "type": "address"
        }
      ],
      "stateMutability": "view",
      "type": "function"
    },
    {
      "inputs": [],
      "name": "renounceOwnership",
      "outputs": [],
      "stateMutability": "nonpayable",
      "type": "function"
    },
    {
      "inputs": [
        {
          "internalType": "address",
          "name": "_staking",
          "type": "address"
        }
      ],
      "name": "setStakingContract",
      "outputs": [],
      "stateMutability": "nonpayable",
      "type": "function"
    },
    {
      "inputs": [],
      "name": "stakingContract",
      "outputs": [
        {
          "internalType": "address",
          "name": "",
          "type": "address"
        }
      ],
      "stateMutability": "view",
      "type": "function"
    },
    {
      "inputs": [
        {
          "internalType": "address",
          "name": "user",
          "type": "address"
        },
        {
          "internalType": "string",
          "name": "skill",
          "type": "string"
        },
        {
          "internalType": "uint256",
          "name": "score",
          "type": "uint256"
        },
        {
          "internalType": "bytes",
          "name": "signature",
          "type": "bytes"
        },
        {
          "internalType": "string",
          "name": "ipfsHash",
          "type": "string"
        },
        {
          "internalType": "uint256[]",
          "name": "milestoneScores",
          "type": "uint256[]"
        }
      ],
      "name": "submitAttestation",
      "outputs": [],
      "stateMutability": "nonpayable",
      "type": "function"
    },
    {
      "inputs": [],
      "name": "teeSigner",
      "outputs": [
        {
          "internalType": "address",
          "name": "",
          "type": "address"
        }
      ],
      "stateMutability": "view",
      "type": "function"
    },
    {
      "inputs": [
        {
          "internalType": "address",
          "name": "newOwner",
          "type": "address"
        }
      ],
      "name": "transferOwnership",
      "outputs": [],
      "stateMutability": "nonpayable",
      "type": "function"
    },
    {
      "inputs": [
        {
          "internalType": "address",
          "name": "_newSigner",
          "type": "address"
        }
      ],
      "name": "updateTEESigner",
      "outputs": [],
      "stateMutability": "nonpayable",
      "type": "function"
    },
    {
      "inputs": [
        {
          "internalType": "address",
          "name": "",
          "type": "address"
        }
      ],
      "name": "userAttestationCount",
      "outputs": [
        {
          "internalType": "uint256",
          "name": "",
          "type": "uint256"
        }
      ],
      "stateMutability": "view",
      "type": "function"
    },
    {
      "inputs": [
        {
          "internalType": "address",
          "name": "",
          "type": "address"
        },
        {
          "internalType": "uint256",
          "name": "",
          "type": "uint256"
        }
      ],
      "name": "userAttestedSkills",
      "outputs": [
        {
          "internalType": "string",
          "name": "",
          "type": "string"
        }
      ],
      "stateMutability": "view",
      "type": "function"
    },
    {
      "inputs": [
        {
          "internalType": "address",
          "name": "user",
          "type": "address"
        },
        {
          "internalType": "string",
          "name": "skill",
          "type": "string"
        }
      ],
      "name": "verifyAttestation",
      "outputs": [
        {
          "internalType": "bool",
          "name": "exists",
          "type": "bool"
        },
        {
          "internalType": "uint256",
          "name": "score",
          "type": "uint256"
        },
        {
          "internalType": "uint256",
          "name": "timestamp",
          "type": "uint256"
        },
        {
          "internalType": "bytes",
          "name": "signature",
          "type": "bytes"
        }
      ],
      "stateMutability": "view",
      "type": "function"
    }
  ],
  "bytecode": "0x6101606040523480156200001257600080fd5b506040516200202238038062002022833981016040819052620000359162000259565b604080518082018252600e81526d292a232696a9b7bb32b932b4b3b760911b602080830191909152825180840190935260018352603160f81b908301523391620000818260006200018b565b61012052620000928160016200018b565b61014052815160208084019190912060e052815190820120610100524660a0526200012060e05161010051604080517f8b73c3c69bb8fe3d512ecc4cf759cc79239f7b179b0ffacaa9a75d522b39400f60208201529081019290925260608201524660808201523060a082015260009060c00160405160208183030381529060405280519060200120905090565b60805250503060c0526001600160a01b0381166200015957604051631e4fbdf760e01b8152600060048201526024015b60405180910390fd5b6200016481620001c4565b50600680546001600160a01b0319166001600160a01b039290921691909117905562000471565b6000602083511015620001ab57620001a38362000216565b9050620001be565b81620001b8848262000330565b5060ff90505b92915050565b600280546001600160a01b038381166001600160a01b0319831681179093556040519116919082907f8be0079c531659141344cd1fd0a4f28419497f9722a3daafe3b4186f6b6457e090600090a35050565b600080829050601f8151111562000244578260405163305a27a960e01b8152600401620001509190620003fc565b805162000251826200044c565b179392505050565b6000602082840312156200026c57600080fd5b81516001600160a01b03811681146200028457600080fd5b9392505050565b634e487b7160e01b600052604160045260246000fd5b600181811c90821680620002b657607f821691505b602082108103620002d757634e487b7160e01b600052602260045260246000fd5b50919050565b601f8211156200032b57600081815260208120601f850160051c81016020861015620003065750805b601f850160051c820191505b81811015620003275782815560010162000312565b5050505b505050565b81516001600160401b038111156200034c576200034c6200028b565b62000364816200035d8454620002a1565b84620002dd565b602080601f8311600181146200039c5760008415620003835750858301515b600019600386901b1c1916600185901b17855562000327565b600085815260208120601f198616915b82811015620003cd57888601518255948401946001909101908401620003ac565b5085821015620003ec5787850151600019600388901b60f8161c191681555b5050505050600190811b01905550565b600060208083528351808285015260005b818110156200042b578581018301518582016040015282016200040d565b506000604082860101526040601f19601f8301168501019250505092915050565b80516020808301519190811015620002d75760001960209190910360031b1b16919050565b60805160a05160c05160e051610100516101205161014051611b56620004cc6000396000610f0601526000610ed40152600061110e015260006110e6015260006110410152600061106b015260006110950152611b566000f3fe608060405234801561001057600080fd5b50600436106100ea5760003560e01c80639dd373b91161008c578063dd5f718511610066578063dd5f718514610214578063ee99205c14610234578063f26db52914610247578063f2fde38b1461025a57600080fd5b80639dd373b9146101ca578063c97d1e6d146101dd578063d9472fcb146101f057600080fd5b8063507d1ca1116100c8578063507d1ca114610166578063715018a61461019457806384b0196e1461019e5780638da5cb5b146101b957600080fd5b806325ec019a146100ef5780632c57109c1461011857806343f855c31461013b575b600080fd5b6101026100fd36600461141b565b61026d565b60405161010f9190611483565b60405180910390f35b61012b61012636600461152e565b61035c565b60405161010f9493929190611581565b60065461014e906001600160a01b031681565b6040516001600160a01b03909116815260200161010f565b61018661017436600461141b565b60046020526000908152604090205481565b60405190815260200161010f565b61019c610567565b005b6101a661057b565b60405161010f97969594939291906115b2565b6002546001600160a01b031661014e565b61019c6101d836600461141b565b6105c1565b61019c6101eb36600461141b565b610660565b6102036101fe36600461165e565b6106fa565b60405161010f959493929190611720565b610227610222366004611766565b610858565b60405161010f9190611790565b60075461014e906001600160a01b031681565b61019c6102553660046117e8565b610911565b61019c61026836600461141b565b610e10565b6001600160a01b0381166000908152600560209081526040808320805482518185028101850190935280835260609492939192909184015b828210156103515783829060005260206000200180546102c4906118c9565b80601f01602080910402602001604051908101604052809291908181526020018280546102f0906118c9565b801561033d5780601f106103125761010080835404028352916020019161033d565b820191906000526020600020905b81548152906001019060200180831161032057829003601f168201915b5050505050815260200190600101906102a5565b505050509050919050565b6001600160a01b038316600090815260036020526040808220905182918291606091839161038d9089908990611903565b90815260200160405180910390206040518060c001604052908160008201548152602001600182015481526020016002820180546103ca906118c9565b80601f01602080910402602001604051908101604052809291908181526020018280546103f6906118c9565b80156104435780601f1061041857610100808354040283529160200191610443565b820191906000526020600020905b81548152906001019060200180831161042657829003601f168201915b5050505050815260200160038201805461045c906118c9565b80601f0160208091040260200160405190810160405280929190818152602001828054610488906118c9565b80156104d55780601f106104aa576101008083540402835291602001916104d5565b820191906000526020600020905b8154815290600101906020018083116104b857829003601f168201915b5050509183525050600482015460ff161515602080830191909152600583018054604080518285028101850182528281529401939283018282801561053957602002820191906000526020600020905b815481526020019060010190808311610525575b50505091909252505050608081015181516020830151604090930151919b909a509198509650945050505050565b61056f610e4e565b6105796000610e7b565b565b60006060806000806000606061058f610ecd565b610597610eff565b60408051600080825260208201909252600f60f81b9b939a50919850469750309650945092509050565b6105c9610e4e565b6001600160a01b0381166106165760405162461bcd60e51b815260206004820152600f60248201526e496e76616c6964206164647265737360881b60448201526064015b60405180910390fd5b600780546001600160a01b0319166001600160a01b0383169081179091556040517f6397f5b135542bb3f477cb346cfab5abdec1251d08dc8f8d4efb4ffe122ea0bf90600090a250565b610668610e4e565b6001600160a01b0381166106b05760405162461bcd60e51b815260206004820152600f60248201526e496e76616c6964206164647265737360881b604482015260640161060d565b600680546001600160a01b0319166001600160a01b0383169081179091556040517f4dffc586f68ee3285a3a878bbb0b1c601dff5380d94d2cbe296e4801d360027b90600090a250565b600360209081526000928352604090922081518083018401805192815290840192909301919091209152805460018201546002830180549293919261073e906118c9565b80601f016020809104026020016040519081016040528092919081815260200182805461076a906118c9565b80156107b75780601f1061078c576101008083540402835291602001916107b7565b820191906000526020600020905b81548152906001019060200180831161079a57829003601f168201915b5050505050908060030180546107cc906118c9565b80601f01602080910402602001604051908101604052809291908181526020018280546107f8906118c9565b80156108455780601f1061081a57610100808354040283529160200191610845565b820191906000526020600020905b81548152906001019060200180831161082857829003601f168201915b5050506004909301549192505060ff1685565b6005602052816000526040600020818154811061087457600080fd5b90600052602060002001600091509150508054610890906118c9565b80601f01602080910402602001604051908101604052809291908181526020018280546108bc906118c9565b80156109095780601f106108de57610100808354040283529160200191610909565b820191906000526020600020905b8154815290600101906020018083116108ec57829003601f168201915b505050505081565b6006546001600160a01b0316331461096b5760405162461bcd60e51b815260206004820152601f60248201527f4f6e6c79205445452063616e2063616c6c20746869732066756e6374696f6e00604482015260640161060d565b60648711156109ac5760405162461bcd60e51b815260206004820152600d60248201526c496e76616c69642073636f726560981b604482015260640161060d565b604185146109fc5760405162461bcd60e51b815260206004820152601860248201527f496e76616c6964207369676e6174757265206c656e6774680000000000000000604482015260640161060d565b6001600160a01b038a16600090815260036020526040908190209051610a25908b908b90611903565b9081526040519081900360200190206004015460ff1615610a885760405162461bcd60e51b815260206004820152601a60248201527f4174746573746174696f6e20616c726561647920657869737473000000000000604482015260640161060d565b60007f31ec8dcbf7cd70c99309d6ebb239acefd2b2d171ecbe2a5ebd1651eff7930adf8b8b8b604051610abc929190611903565b6040805191829003822060208301949094526001600160a01b0390921691810191909152606081019190915260808101899052600060a082015260c0016040516020818303038152906040528051906020012090506000610b1c82610f2c565b90506000610b60828a8a8080601f016020809104026020016040519081016040528093929190818152602001838380828437600092019190915250610f5f92505050565b6006549091506001600160a01b03808316911614610bb45760405162461bcd60e51b8152602060048201526011602482015270496e76616c6964207369676e617475726560781b604482015260640161060d565b6040518060c001604052808b81526020014281526020018a8a8080601f016020809104026020016040519081016040528093929190818152602001838380828437600092019190915250505090825250604080516020601f8b0181900481028201810190925289815291810191908a908a90819084018382808284376000920191909152505050908252506001602080830191909152604080518883028181018401835289825291909301929189918991829190850190849080828437600081840152601f19601f82011690508083019250505050505050815250600360008f6001600160a01b03166001600160a01b031681526020019081526020016000208d8d604051610cc4929190611903565b9081526040805160209281900383019020835181559183015160018301558201516002820190610cf49082611962565b5060608201516003820190610d099082611962565b50608082015160048201805460ff191691151591909117905560a08201518051610d3d91600584019160209091019061139f565b5050506001600160a01b038d166000908152600460205260408120805491610d6483611a22565b90915550506001600160a01b038d16600090815260056020908152604082208054600181018255908352912001610d9c8c8e83611a49565b508b8b604051610dad929190611903565b60405180910390208d6001600160a01b03167fa692a97ce27d86743839c46835b184143be58b13ad9813b8621a3d0564d10ad98c42604051610df9929190918252602082015260400190565b60405180910390a350505050505050505050505050565b610e18610e4e565b6001600160a01b038116610e4257604051631e4fbdf760e01b81526000600482015260240161060d565b610e4b81610e7b565b50565b6002546001600160a01b031633146105795760405163118cdaa760e01b815233600482015260240161060d565b600280546001600160a01b038381166001600160a01b0319831681179093556040519116919082907f8be0079c531659141344cd1fd0a4f28419497f9722a3daafe3b4186f6b6457e090600090a35050565b6060610efa7f00000000000000000000000000000000000000000000000000000000000000006000610f89565b905090565b6060610efa7f00000000000000000000000000000000000000000000000000000000000000006001610f89565b6000610f59610f39611034565b8360405161190160f01b8152600281019290925260228201526042902090565b92915050565b600080600080610f6f868661115f565b925092509250610f7f82826111ac565b5090949350505050565b606060ff8314610fa357610f9c83611269565b9050610f59565b818054610faf906118c9565b80601f0160208091040260200160405190810160405280929190818152602001828054610fdb906118c9565b80156110285780601f10610ffd57610100808354040283529160200191611028565b820191906000526020600020905b81548152906001019060200180831161100b57829003601f168201915b50505050509050610f59565b6000306001600160a01b037f00000000000000000000000000000000000000000000000000000000000000001614801561108d57507f000000000000000000000000000000000000000000000000000000000000000046145b156110b757507f000000000000000000000000000000000000000000000000000000000000000090565b610efa604080517f8b73c3c69bb8fe3d512ecc4cf759cc79239f7b179b0ffacaa9a75d522b39400f60208201527f0000000000000000000000000000000000000000000000000000000000000000918101919091527f000000000000000000000000000000000000000000000000000000000000000060608201524660808201523060a082015260009060c00160405160208183030381529060405280519060200120905090565b600080600083516041036111995760208401516040850151606086015160001a61118b888285856112a8565b9550955095505050506111a5565b50508151600091506002905b9250925092565b60008260038111156111c0576111c0611b0a565b036111c9575050565b60018260038111156111dd576111dd611b0a565b036111fb5760405163f645eedf60e01b815260040160405180910390fd5b600282600381111561120f5761120f611b0a565b036112305760405163fce698f760e01b81526004810182905260240161060d565b600382600381111561124457611244611b0a565b03611265576040516335e2f38360e21b81526004810182905260240161060d565b5050565b6060600061127683611377565b604080516020808252818301909252919250600091906020820181803683375050509182525060208101929092525090565b600080807f7fffffffffffffffffffffffffffffff5d576e7357a4501ddfe92f46681b20a08411156112e3575060009150600390508261136d565b604080516000808252602082018084528a905260ff891692820192909252606081018790526080810186905260019060a0016020604051602081039080840390855afa158015611337573d6000803e3d6000fd5b5050604051601f1901519150506001600160a01b0381166113635750600092506001915082905061136d565b9250600091508190505b9450945094915050565b600060ff8216601f811115610f5957604051632cd44ac360e21b815260040160405180910390fd5b8280548282559060005260206000209081019282156113da579160200282015b828111156113da5782518255916020019190600101906113bf565b506113e69291506113ea565b5090565b5b808211156113e657600081556001016113eb565b80356001600160a01b038116811461141657600080fd5b919050565b60006020828403121561142d57600080fd5b611436826113ff565b9392505050565b6000815180845260005b8181101561146357602081850181015186830182015201611447565b506000602082860101526020601f19601f83011685010191505092915050565b6000602080830181845280855180835260408601915060408160051b870101925083870160005b828110156114d857603f198886030184526114c685835161143d565b945092850192908501906001016114aa565b5092979650505050505050565b60008083601f8401126114f757600080fd5b50813567ffffffffffffffff81111561150f57600080fd5b60208301915083602082850101111561152757600080fd5b9250929050565b60008060006040848603121561154357600080fd5b61154c846113ff565b9250602084013567ffffffffffffffff81111561156857600080fd5b611574868287016114e5565b9497909650939450505050565b84151581528360208201528260408201526080606082015260006115a8608083018461143d565b9695505050505050565b60ff60f81b881681526000602060e0818401526115d260e084018a61143d565b83810360408501526115e4818a61143d565b606085018990526001600160a01b038816608086015260a0850187905284810360c0860152855180825283870192509083019060005b818110156116365783518352928401929184019160010161161a565b50909c9b505050505050505050505050565b634e487b7160e01b600052604160045260246000fd5b6000806040838503121561167157600080fd5b61167a836113ff565b9150602083013567ffffffffffffffff8082111561169757600080fd5b818501915085601f8301126116ab57600080fd5b8135818111156116bd576116bd611648565b604051601f8201601f19908116603f011681019083821181831017156116e5576116e5611648565b816040528281528860208487010111156116fe57600080fd5b8260208601602083013760006020848301015280955050505050509250929050565b85815284602082015260a06040820152600061173f60a083018661143d565b8281036060840152611751818661143d565b91505082151560808301529695505050505050565b6000806040838503121561177957600080fd5b611782836113ff565b946020939093013593505050565b602081526000611436602083018461143d565b60008083601f8401126117b557600080fd5b50813567ffffffffffffffff8111156117cd57600080fd5b6020830191508360208260051b850101111561152757600080fd5b60008060008060008060008060008060c08b8d03121561180757600080fd5b6118108b6113ff565b995060208b013567ffffffffffffffff8082111561182d57600080fd5b6118398e838f016114e5565b909b50995060408d0135985060608d013591508082111561185957600080fd5b6118658e838f016114e5565b909850965060808d013591508082111561187e57600080fd5b61188a8e838f016114e5565b909650945060a08d01359150808211156118a357600080fd5b506118b08d828e016117a3565b915080935050809150509295989b9194979a5092959850565b600181811c908216806118dd57607f821691505b6020821081036118fd57634e487b7160e01b600052602260045260246000fd5b50919050565b8183823760009101908152919050565b601f82111561195d57600081815260208120601f850160051c8101602086101561193a5750805b601f850160051c820191505b8181101561195957828155600101611946565b5050505b505050565b815167ffffffffffffffff81111561197c5761197c611648565b6119908161198a84546118c9565b84611913565b602080601f8311600181146119c557600084156119ad5750858301515b600019600386901b1c1916600185901b178555611959565b600085815260208120601f198616915b828110156119f4578886015182559484019460019091019084016119d5565b5085821015611a125787850151600019600388901b60f8161c191681555b5050505050600190811b01905550565b600060018201611a4257634e487b7160e01b600052601160045260246000fd5b5060010190565b67ffffffffffffffff831115611a6157611a61611648565b611a7583611a6f83546118c9565b83611913565b6000601f841160018114611aa95760008515611a915750838201355b600019600387901b1c1916600186901b178355611b03565b600083815260209020601f19861690835b82811015611ada5786850135825560209485019460019092019101611aba565b5086821015611af75760001960f88860031b161c19848701351681555b505060018560011b0183555b5050505050565b634e487b7160e01b600052602160045260246000fdfea26469706673582212201f107ab1079dd4da4c97495d229cc9af5484e19515d1b7c263f11f8dd7abbe0b64736f6c63430008140033",
  "linkReferences": {},
  "deployedLinkReferences": {}
}