{
  "_format": "hh-sol-artifact-1",
  "contractName": "SkillStaking",
  "sourceName": "contracts/SkillStaking.sol",
  "abi": [
    {
      "inputs": [
        {
          "internalType": "address",
          "name": "_teeAttestor",
          "type": "address"
        }
      ],
      "stateMutability": "nonpayable",
      "type": "constructor"
    },
    {
      "inputs": [
        {
          "internalType": "address",
          "name": "owner",
          "type": "address"
        }
      ],
      "name": "OwnableInvalidOwner",
      "type": "error"
    },
    {
      "inputs": [
        {
          "internalType": "address",
          "name": "account",
          "type": "address"
        }
      ],
      "name": "OwnableUnauthorizedAccount",
      "type": "error"
    },
    {
      "inputs": [],
      "name": "ReentrancyGuardReentrantCall",
      "type": "error"
    },
    {
      "anonymous": false,
      "inputs": [
        {
          "indexed": true,
          "internalType": "address",
          "name": "user",
          "type": "address"
        },
        {
          "indexed": true,
          "internalType": "string",
          "name": "skill",
          "type": "string"
        },
        {
          "indexed": false,
          "internalType": "uint256",
          "name": "milestoneId",
          "type": "uint256"
        },
        {
          "indexed": false,
          "internalType": "uint256",
          "name": "timestamp",
          "type": "uint256"
        }
      ],
      "name": "MilestoneRecorded",
      "type": "event"
    },
    {
      "anonymous": false,
      "inputs": [
        {
          "indexed": true,
          "internalType": "address",
          "name": "previousOwner",
          "type": "address"
        },
        {
          "indexed": true,
          "internalType": "address",
          "name": "newOwner",
          "type": "address"
        }
      ],
      "name": "OwnershipTransferred",
      "type": "event"
    },
    {
      "anonymous": false,
      "inputs": [
        {
          "indexed": true,
          "internalType": "address",
          "name": "user",
          "type": "address"
        },
        {
          "indexed": true,
          "internalType": "string",
          "name": "skill",
          "type": "string"
        },
        {
          "indexed": false,
          "internalType": "uint256",
          "name": "amountReturned",
          "type": "uint256"
        },
        {
          "indexed": false,
          "internalType": "uint256",
          "name": "timestamp",
          "type": "uint256"
        }
      ],
      "name": "RefundClaimed",
      "type": "event"
    },
    {
      "anonymous": false,
      "inputs": [
        {
          "indexed": true,
          "internalType": "address",
          "name": "user",
          "type": "address"
        },
        {
          "indexed": true,
          "internalType": "string",
          "name": "skill",
          "type": "string"
        },
        {
          "indexed": false,
          "internalType": "uint256",
          "name": "amount",
          "type": "uint256"
        },
        {
          "indexed": false,
          "internalType": "uint256",
          "name": "timestamp",
          "type": "uint256"
        }
      ],
      "name": "StakeLocked",
      "type": "event"
    },
    {
      "anonymous": false,
      "inputs": [
        {
          "indexed": true,
          "internalType": "address",
          "name": "newAttestor",
          "type": "address"
        }
      ],
      "name": "TEEAttestorUpdated",
      "type": "event"
    },
    {
      "inputs": [],
      "name": "PASS_THRESHOLD",
      "outputs": [
        {
          "internalType": "uint256",
          "name": "",
          "type": "uint256"
        }
      ],
      "stateMutability": "view",
      "type": "function"
    },
    {
      "inputs": [],
      "name": "STAKE_AMOUNT",
      "outputs": [
        {
          "internalType": "uint256",
          "name": "",
          "type": "uint256"
        }
      ],
      "stateMutability": "view",
      "type": "function"
    },
    {
      "inputs": [
        {
          "internalType": "address",
          "name": "user",
          "type": "address"
        },
        {
          "internalType": "string",
          "name": "skill",
          "type": "string"
        },
        {
          "internalType": "uint256",
          "name": "finalScore",
          "type": "uint256"
        }
      ],
      "name": "claimRefund",
      "outputs": [],
      "stateMutability": "nonpayable",
      "type": "function"
    },
    {
      "inputs": [],
      "name": "owner",
      "outputs": [
        {
          "internalType": "address",
          "name": "",
          "type": "address"
        }
      ],
      "stateMutability": "view",
      "type": "function"
    },
    {
      "inputs": [
        {
          "internalType": "address",
          "name": "user",
          "type": "address"
        },
        {
          "internalType": "string",
          "name": "skill",
          "type": "string"
        },
        {
          "internalType": "uint256",
          "name": "milestoneId",
          "type": "uint256"
        }
      ],
      "name": "recordMilestone",
      "outputs": [],
      "stateMutability": "nonpayable",
      "type": "function"
    },
    {
      "inputs": [],
      "name": "renounceOwnership",
      "outputs": [],
      "stateMutability": "nonpayable",
      "type": "function"
    },
    {
      "inputs": [
        {
          "internalType": "string",
          "name": "skillTopic",
          "type": "string"
        }
      ],
      "name": "stake",
      "outputs": [],
      "stateMutability": "payable",
      "type": "function"
    },
    {
      "inputs": [
        {
          "internalType": "address",
          "name": "",
          "type": "address"
        },
        {
          "internalType": "string",
          "name": "",
          "type": "string"
        }
      ],
      "name": "stakes",
      "outputs": [
        {
          "internalType": "uint256",
          "name": "amount",
          "type": "uint256"
        },
        {
          "internalType": "uint256",
          "name": "stakedAt",
          "type": "uint256"
        },
        {
          "internalType": "uint256",
          "name": "milestoneCheckpoint",
          "type": "uint256"
        },
        {
          "internalType": "bool",
          "name": "attestationComplete",
          "type": "bool"
        },
        {
          "internalType": "bool",
          "name": "refunded",
          "type": "bool"
        },
        {
          "internalType": "string",
          "name": "skillTopic",
          "type": "string"
        }
      ],
      "stateMutability": "view",
      "type": "function"
    },
    {
      "inputs": [],
      "name": "teeAttestor",
      "outputs": [
        {
          "internalType": "address",
          "name": "",
          "type": "address"
        }
      ],
      "stateMutability": "view",
      "type": "function"
    },
    {
      "inputs": [
        {
          "internalType": "address",
          "name": "newOwner",
          "type": "address"
        }
      ],
      "name": "transferOwnership",
      "outputs": [],
      "stateMutability": "nonpayable",
      "type": "function"
    },
    {
      "inputs": [
        {
          "internalType": "address",
          "name": "_newAttestor",
          "type": "address"
        }
      ],
      "name": "updateTEEAttestor",
      "outputs": [],
      "stateMutability": "nonpayable",
      "type": "function"
    },
    {
      "inputs": [],
      "name": "withdrawTreasury",
      "outputs": [],
      "stateMutability": "nonpayable",
      "type": "function"
    }
  ],
  "bytecode": "0x608060405234801561001057600080fd5b506040516111fc3803806111fc83398101604081905261002f916100db565b6001600055338061005a57604051631e4fbdf760e01b81526000600482015260240160405180910390fd5b61006381610089565b50600380546001600160a01b0319166001600160a01b039290921691909117905561010b565b600180546001600160a01b038381166001600160a01b0319831681179093556040519116919082907f8be0079c531659141344cd1fd0a4f28419497f9722a3daafe3b4186f6b6457e090600090a35050565b6000602082840312156100ed57600080fd5b81516001600160a01b038116811461010457600080fd5b9392505050565b6110e28061011a6000396000f3fe6080604052600436106100a75760003560e01c80638c56dcaf116100645780638c56dcaf146101535780638da5cb5b1461018b578063a14d4177146101a9578063c8653171146101c9578063f2fde38b146101fb578063faf5625f1461021b57600080fd5b80630e15d63f146100ac578063166bab95146100ce57806333f78d59146100e357806346f45b8d1461010b578063715018a61461011e578063894b8df414610133575b600080fd5b3480156100b857600080fd5b506100cc6100c7366004610cfa565b610236565b005b3480156100da57600080fd5b506100cc6104cd565b3480156100ef57600080fd5b506100f8604681565b6040519081526020015b60405180910390f35b6100cc610119366004610d54565b6105c4565b34801561012a57600080fd5b506100cc6107e9565b34801561013f57600080fd5b506100cc61014e366004610cfa565b6107fd565b34801561015f57600080fd5b50600354610173906001600160a01b031681565b6040516001600160a01b039091168152602001610102565b34801561019757600080fd5b506001546001600160a01b0316610173565b3480156101b557600080fd5b506100cc6101c4366004610d96565b610a31565b3480156101d557600080fd5b506101e96101e4366004610dce565b610acb565b60405161010296959493929190610e90565b34801561020757600080fd5b506100cc610216366004610d96565b610bae565b34801561022757600080fd5b506100f866038d7ea4c6800081565b6003546001600160a01b031633146102955760405162461bcd60e51b815260206004820152601f60248201527f4f6e6c79205445452063616e2063616c6c20746869732066756e6374696f6e0060448201526064015b60405180910390fd5b61029d610bec565b6001600160a01b03841660009081526002602052604080822090516102c59086908690610f06565b9081526020016040518091039020905060008160000154116103215760405162461bcd60e51b8152602060048201526015602482015274139bc81858dd1a5d99481cdd185ad948199bdd5b99605a1b604482015260640161028c565b6003810154610100900460ff16156103745760405162461bcd60e51b815260206004820152601660248201527514dd185ad948185b1c9958591e481c99599d5b99195960521b604482015260640161028c565b60006046831061039f57815460649061038e906050610f16565b6103989190610f41565b90506103bc565b81546064906103af906014610f16565b6103b99190610f41565b90505b60038201805461ffff19166101011790556040516000906001600160a01b0388169083908381818185875af1925050503d8060008114610418576040519150601f19603f3d011682016040523d82523d6000602084013e61041d565b606091505b50509050806104605760405162461bcd60e51b815260206004820152600f60248201526e151c985b9cd9995c8819985a5b1959608a1b604482015260640161028c565b8585604051610470929190610f06565b60408051918290038220848352426020840152916001600160a01b038a16917f9426d767e28c0a4734da8bf6ee9caa2a1401c005cb3fc663ef2300a824058022910160405180910390a35050506104c76001600055565b50505050565b6104d5610c16565b478061051a5760405162461bcd60e51b81526020600482015260146024820152734e6f2066756e647320746f20776974686472617760601b604482015260640161028c565b600061052e6001546001600160a01b031690565b6001600160a01b03168260405160006040518083038185875af1925050503d8060008114610578576040519150601f19603f3d011682016040523d82523d6000602084013e61057d565b606091505b50509050806105c05760405162461bcd60e51b815260206004820152600f60248201526e151c985b9cd9995c8819985a5b1959608a1b604482015260640161028c565b5050565b6105cc610bec565b66038d7ea4c68000341461061b5760405162461bcd60e51b8152602060048201526016602482015275125b98dbdc9c9958dd081cdd185ad948185b5bdd5b9d60521b604482015260640161028c565b3360009081526002602052604090819020905161063b9084908490610f06565b90815260405190819003602001902054156106985760405162461bcd60e51b815260206004820152601d60248201527f416c7265616479207374616b656420666f72207468697320736b696c6c000000604482015260640161028c565b6040518060c001604052803481526020014281526020016000815260200160001515815260200160001515815260200183838080601f0160208091040260200160405190810160405280939291908181526020018383808284376000920182905250939094525050338152600260205260409081902090519091506107209085908590610f06565b908152604080519182900360209081019092208351815591830151600183015582015160028201556060820151600382018054608085015115156101000261ff00199315159390931661ffff199091161791909117905560a0820151600482019061078b9082610fec565b505060405161079e915083908390610f06565b604080519182900382203483524260208401529133917fe8a7e74a857c2dd1f92e8ac287fc09532fb7a97c72942ed545cfe1538c5d9192910160405180910390a36105c06001600055565b6107f1610c16565b6107fb6000610c43565b565b6003546001600160a01b031633146108575760405162461bcd60e51b815260206004820152601f60248201527f4f6e6c79205445452063616e2063616c6c20746869732066756e6374696f6e00604482015260640161028c565b6001600160a01b038416600090815260026020526040808220905161087f9086908690610f06565b9081526020016040518091039020905060008160000154116108db5760405162461bcd60e51b8152602060048201526015602482015274139bc81858dd1a5d99481cdd185ad948199bdd5b99605a1b604482015260640161028c565b6003810154610100900460ff161561092e5760405162461bcd60e51b815260206004820152601660248201527514dd185ad948185b1c9958591e481c99599d5b99195960521b604482015260640161028c565b806002015482116109815760405162461bcd60e51b815260206004820152601a60248201527f4d696c6573746f6e6520616c7265616479207265636f72646564000000000000604482015260640161028c565b60058211156109c95760405162461bcd60e51b8152602060048201526014602482015273125b9d985b1a59081b5a5b195cdd1bdb9948125160621b604482015260640161028c565b600281018290556040516109e09085908590610f06565b60408051918290038220848352426020840152916001600160a01b038816917f03c8cc3a9ebf0b6cfa6c3083a5188afb5f2f4f4d8a547d4f452ee1e917d6d731910160405180910390a35050505050565b610a39610c16565b6001600160a01b038116610a815760405162461bcd60e51b815260206004820152600f60248201526e496e76616c6964206164647265737360881b604482015260640161028c565b600380546001600160a01b0319166001600160a01b0383169081179091556040517f4086ba3dbeb84969428365cdf18f4ace5e3dab8e5394457c6b47881986f78dd590600090a250565b600260208181526000938452604090932082518084018501805192815290850193909401929092209190925280546001820154928201546003830154600484018054939594929360ff8084169461010090940416929190610b2b90610f63565b80601f0160208091040260200160405190810160405280929190818152602001828054610b5790610f63565b8015610ba45780601f10610b7957610100808354040283529160200191610ba4565b820191906000526020600020905b815481529060010190602001808311610b8757829003601f168201915b5050505050905086565b610bb6610c16565b6001600160a01b038116610be057604051631e4fbdf760e01b81526000600482015260240161028c565b610be981610c43565b50565b600260005403610c0f57604051633ee5aeb560e01b815260040160405180910390fd5b6002600055565b6001546001600160a01b031633146107fb5760405163118cdaa760e01b815233600482015260240161028c565b600180546001600160a01b038381166001600160a01b0319831681179093556040519116919082907f8be0079c531659141344cd1fd0a4f28419497f9722a3daafe3b4186f6b6457e090600090a35050565b80356001600160a01b0381168114610cac57600080fd5b919050565b60008083601f840112610cc357600080fd5b50813567ffffffffffffffff811115610cdb57600080fd5b602083019150836020828501011115610cf357600080fd5b9250929050565b60008060008060608587031215610d1057600080fd5b610d1985610c95565b9350602085013567ffffffffffffffff811115610d3557600080fd5b610d4187828801610cb1565b9598909750949560400135949350505050565b60008060208385031215610d6757600080fd5b823567ffffffffffffffff811115610d7e57600080fd5b610d8a85828601610cb1565b90969095509350505050565b600060208284031215610da857600080fd5b610db182610c95565b9392505050565b634e487b7160e01b600052604160045260246000fd5b60008060408385031215610de157600080fd5b610dea83610c95565b9150602083013567ffffffffffffffff80821115610e0757600080fd5b818501915085601f830112610e1b57600080fd5b813581811115610e2d57610e2d610db8565b604051601f8201601f19908116603f01168101908382118183101715610e5557610e55610db8565b81604052828152886020848701011115610e6e57600080fd5b8260208601602083013760006020848301015280955050505050509250929050565b8681526000602087818401528660408401528515156060840152841515608084015260c060a084015283518060c085015260005b81811015610ee05785810183015185820160e001528201610ec4565b50600060e0828601015260e0601f19601f83011685010192505050979650505050505050565b8183823760009101908152919050565b8082028115828204841417610f3b57634e487b7160e01b600052601160045260246000fd5b92915050565b600082610f5e57634e487b7160e01b600052601260045260246000fd5b500490565b600181811c90821680610f7757607f821691505b602082108103610f9757634e487b7160e01b600052602260045260246000fd5b50919050565b601f821115610fe757600081815260208120601f850160051c81016020861015610fc45750805b601f850160051c820191505b81811015610fe357828155600101610fd0565b5050505b505050565b815167ffffffffffffffff81111561100657611006610db8565b61101a816110148454610f63565b84610f9d565b602080601f83116001811461104f57600084156110375750858301515b600019600386901b1c1916600185901b178555610fe3565b600085815260208120601f198616915b8281101561107e5788860151825594840194600190910190840161105f565b508582101561109c5787850151600019600388901b60f8161c191681555b5050505050600190811b0190555056fea2646970667358221220ab37705805480a506e4c69e13f218d33b9da22b969d322c81f5734f919977a5064736f6c63430008140033",
  "linkReferences": {},
  "deployedLinkReferences": {}
}