{
  "_format": "hh-sol-artifact-1",
  "contractName": "RTFMAttestation",
  "sourceName": "contracts/RTFMAttestation.sol",
  "abi": [
    {
      "inputs": [
        {
          "internalType": "address",
          "name": "_teeSigner",
          "type": "address"
        },
        {
          "internalType": "address",
          "name": "_stakingContract",
          "type": "address"
        }
      ],
      "stateMutability": "nonpayable",
      "type": "constructor"
    },
    {
      "inputs": [],
      "name": "ECDSAInvalidSignature",
      "type": "error"
    },
    {
      "inputs": [
        {
          "internalType": "uint256",
          "name": "length",
          "type": "uint256"
        }
      ],
      "name": "ECDSAInvalidSignatureLength",
      "type": "error"
    },
    {
      "inputs": [
        {
          "internalType": "bytes32",
          "name": "s",
          "type": "bytes32"
        }
      ],
      "name": "ECDSAInvalidSignatureS",
      "type": "error"
    },
    {
      "inputs": [],
      "name": "InvalidShortString",
      "type": "error"
    },
    {
      "inputs": [
        {
          "internalType": "address",
          "name": "owner",
          "type": "address"
        }
      ],
      "name": "OwnableInvalidOwner",
      "type": "error"
    },
    {
      "inputs": [
        {
          "internalType": "address",
          "name": "account",
          "type": "address"
        }
      ],
      "name": "OwnableUnauthorizedAccount",
      "type": "error"
    },
    {
      "inputs": [],
      "name": "ReentrancyGuardReentrantCall",
      "type": "error"
    },
    {
      "inputs": [
        {
          "internalType": "string",
          "name": "str",
          "type": "string"
        }
      ],
      "name": "StringTooLong",
      "type": "error"
    },
    {
      "anonymous": false,
      "inputs": [
        {
          "indexed": true,
          "internalType": "address",
          "name": "user",
          "type": "address"
        },
        {
          "indexed": true,
          "internalType": "bytes32",
          "name": "sessionId",
          "type": "bytes32"
        },
        {
          "indexed": true,
          "internalType": "uint8",
          "name": "milestoneId",
          "type": "uint8"
        },
        {
          "indexed": false,
          "internalType": "uint256",
          "name": "timestamp",
          "type": "uint256"
        },
        {
          "indexed": false,
          "internalType": "bytes32",
          "name": "ipfsHash",
          "type": "bytes32"
        }
      ],
      "name": "CheckpointCreated",
      "type": "event"
    },
    {
      "anonymous": false,
      "inputs": [
        {
          "indexed": true,
          "internalType": "address",
          "name": "user",
          "type": "address"
        },
        {
          "indexed": true,
          "internalType": "bytes32",
          "name": "sessionId",
          "type": "bytes32"
        },
        {
          "indexed": true,
          "internalType": "uint8",
          "name": "milestoneId",
          "type": "uint8"
        },
        {
          "indexed": false,
          "internalType": "string",
          "name": "reason",
          "type": "string"
        }
      ],
      "name": "CheckpointFailed",
      "type": "event"
    },
    {
      "anonymous": false,
      "inputs": [],
      "name": "EIP712DomainChanged",
      "type": "event"
    },
    {
      "anonymous": false,
      "inputs": [
        {
          "indexed": true,
          "internalType": "address",
          "name": "previousOwner",
          "type": "address"
        },
        {
          "indexed": true,
          "internalType": "address",
          "name": "newOwner",
          "type": "address"
        }
      ],
      "name": "OwnershipTransferred",
      "type": "event"
    },
    {
      "anonymous": false,
      "inputs": [
        {
          "indexed": true,
          "internalType": "address",
          "name": "oldContract",
          "type": "address"
        },
        {
          "indexed": true,
          "internalType": "address",
          "name": "newContract",
          "type": "address"
        },
        {
          "indexed": false,
          "internalType": "uint256",
          "name": "timestamp",
          "type": "uint256"
        }
      ],
      "name": "StakingContractUpdated",
      "type": "event"
    },
    {
      "anonymous": false,
      "inputs": [
        {
          "indexed": true,
          "internalType": "address",
          "name": "oldSigner",
          "type": "address"
        },
        {
          "indexed": true,
          "internalType": "address",
          "name": "newSigner",
          "type": "address"
        },
        {
          "indexed": false,
          "internalType": "uint256",
          "name": "timestamp",
          "type": "uint256"
        }
      ],
      "name": "TEESignerUpdated",
      "type": "event"
    },
    {
      "inputs": [
        {
          "internalType": "address",
          "name": "_user",
          "type": "address"
        },
        {
          "internalType": "bytes32",
          "name": "_sessionId",
          "type": "bytes32"
        },
        {
          "internalType": "uint8",
          "name": "_milestoneId",
          "type": "uint8"
        }
      ],
      "name": "checkpointExists",
      "outputs": [
        {
          "internalType": "bool",
          "name": "",
          "type": "bool"
        }
      ],
      "stateMutability": "view",
      "type": "function"
    },
    {
      "inputs": [
        {
          "internalType": "bytes32",
          "name": "",
          "type": "bytes32"
        }
      ],
      "name": "checkpoints",
      "outputs": [
        {
          "internalType": "address",
          "name": "user",
          "type": "address"
        },
        {
          "internalType": "bytes32",
          "name": "sessionId",
          "type": "bytes32"
        },
        {
          "internalType": "uint8",
          "name": "milestoneId",
          "type": "uint8"
        },
        {
          "internalType": "uint256",
          "name": "timestamp",
          "type": "uint256"
        },
        {
          "internalType": "bytes32",
          "name": "ipfsHash",
          "type": "bytes32"
        },
        {
          "internalType": "bytes",
          "name": "signature",
          "type": "bytes"
        },
        {
          "internalType": "bool",
          "name": "verified",
          "type": "bool"
        }
      ],
      "stateMutability": "view",
      "type": "function"
    },
    {
      "inputs": [],
      "name": "eip712Domain",
      "outputs": [
        {
          "internalType": "bytes1",
          "name": "fields",
          "type": "bytes1"
        },
        {
          "internalType": "string",
          "name": "name",
          "type": "string"
        },
        {
          "internalType": "string",
          "name": "version",
          "type": "string"
        },
        {
          "internalType": "uint256",
          "name": "chainId",
          "type": "uint256"
        },
        {
          "internalType": "address",
          "name": "verifyingContract",
          "type": "address"
        },
        {
          "internalType": "bytes32",
          "name": "salt",
          "type": "bytes32"
        },
        {
          "internalType": "uint256[]",
          "name": "extensions",
          "type": "uint256[]"
        }
      ],
      "stateMutability": "view",
      "type": "function"
    },
    {
      "inputs": [
        {
          "internalType": "address",
          "name": "_user",
          "type": "address"
        },
        {
          "internalType": "bytes32",
          "name": "_sessionId",
          "type": "bytes32"
        },
        {
          "internalType": "uint8",
          "name": "_milestoneId",
          "type": "uint8"
        }
      ],
      "name": "getCheckpoint",
      "outputs": [
        {
          "components": [
            {
              "internalType": "address",
              "name": "user",
              "type": "address"
            },
            {
              "internalType": "bytes32",
              "name": "sessionId",
              "type": "bytes32"
            },
            {
              "internalType": "uint8",
              "name": "milestoneId",
              "type": "uint8"
            },
            {
              "internalType": "uint256",
              "name": "timestamp",
              "type": "uint256"
            },
            {
              "internalType": "bytes32",
              "name": "ipfsHash",
              "type": "bytes32"
            },
            {
              "internalType": "bytes",
              "name": "signature",
              "type": "bytes"
            },
            {
              "internalType": "bool",
              "name": "verified",
              "type": "bool"
            }
          ],
          "internalType": "struct RTFMAttestation.Checkpoint",
          "name": "",
          "type": "tuple"
        }
      ],
      "stateMutability": "view",
      "type": "function"
    },
    {
      "inputs": [
        {
          "internalType": "bytes32",
          "name": "_sessionId",
          "type": "bytes32"
        }
      ],
      "name": "getSessionCheckpointsCount",
      "outputs": [
        {
          "internalType": "uint256",
          "name": "",
          "type": "uint256"
        }
      ],
      "stateMutability": "view",
      "type": "function"
    },
    {
      "inputs": [
        {
          "internalType": "bytes32",
          "name": "_sessionId",
          "type": "bytes32"
        },
        {
          "internalType": "uint256",
          "name": "_offset",
          "type": "uint256"
        },
        {
          "internalType": "uint256",
          "name": "_limit",
          "type": "uint256"
        }
      ],
      "name": "getSessionCheckpointsPaginated",
      "outputs": [
        {
          "components": [
            {
              "internalType": "address",
              "name": "user",
              "type": "address"
            },
            {
              "internalType": "bytes32",
              "name": "sessionId",
              "type": "bytes32"
            },
            {
              "internalType": "uint8",
              "name": "milestoneId",
              "type": "uint8"
            },
            {
              "internalType": "uint256",
              "name": "timestamp",
              "type": "uint256"
            },
            {
              "internalType": "bytes32",
              "name": "ipfsHash",
              "type": "bytes32"
            },
            {
              "internalType": "bytes",
              "name": "signature",
              "type": "bytes"
            },
            {
              "internalType": "bool",
              "name": "verified",
              "type": "bool"
            }
          ],
          "internalType": "struct RTFMAttestation.Checkpoint[]",
          "name": "",
          "type": "tuple[]"
        }
      ],
      "stateMutability": "view",
      "type": "function"
    },
    {
      "inputs": [
        {
          "internalType": "address",
          "name": "_user",
          "type": "address"
        }
      ],
      "name": "getUserCheckpointsCount",
      "outputs": [
        {
          "internalType": "uint256",
          "name": "",
          "type": "uint256"
        }
      ],
      "stateMutability": "view",
      "type": "function"
    },
    {
      "inputs": [
        {
          "internalType": "address",
          "name": "_user",
          "type": "address"
        },
        {
          "internalType": "uint256",
          "name": "_offset",
          "type": "uint256"
        },
        {
          "internalType": "uint256",
          "name": "_limit",
          "type": "uint256"
        }
      ],
      "name": "getUserCheckpointsPaginated",
      "outputs": [
        {
          "components": [
            {
              "internalType": "address",
              "name": "user",
              "type": "address"
            },
            {
              "internalType": "bytes32",
              "name": "sessionId",
              "type": "bytes32"
            },
            {
              "internalType": "uint8",
              "name": "milestoneId",
              "type": "uint8"
            },
            {
              "internalType": "uint256",
              "name": "timestamp",
              "type": "uint256"
            },
            {
              "internalType": "bytes32",
              "name": "ipfsHash",
              "type": "bytes32"
            },
            {
              "internalType": "bytes",
              "name": "signature",
              "type": "bytes"
            },
            {
              "internalType": "bool",
              "name": "verified",
              "type": "bool"
            }
          ],
          "internalType": "struct RTFMAttestation.Checkpoint[]",
          "name": "",
          "type": "tuple[]"
        }
      ],
      "stateMutability": "view",
      "type": "function"
    },
    {
      "inputs": [],
      "name": "owner",
      "outputs": [
        {
          "internalType": "address",
          "name": "",
          "type": "address"
        }
      ],
      "stateMutability": "view",
      "type": "function"
    },
    {
      "inputs": [
        {
          "internalType": "address",
          "name": "_user",
          "type": "address"
        },
        {
          "internalType": "bytes32",
          "name": "_sessionId",
          "type": "bytes32"
        },
        {
          "internalType": "uint8",
          "name": "_milestoneId",
          "type": "uint8"
        },
        {
          "internalType": "uint256",
          "name": "_timestamp",
          "type": "uint256"
        },
        {
          "internalType": "bytes32",
          "name": "_ipfsHash",
          "type": "bytes32"
        },
        {
          "internalType": "bytes32",
          "name": "_codeHash",
          "type": "bytes32"
        },
        {
          "internalType": "bytes",
          "name": "_signature",
          "type": "bytes"
        }
      ],
      "name": "recordCheckpoint",
      "outputs": [],
      "stateMutability": "nonpayable",
      "type": "function"
    },
    {
      "inputs": [],
      "name": "renounceOwnership",
      "outputs": [],
      "stateMutability": "nonpayable",
      "type": "function"
    },
    {
      "inputs": [
        {
          "internalType": "bytes32",
          "name": "",
          "type": "bytes32"
        },
        {
          "internalType": "uint256",
          "name": "",
          "type": "uint256"
        }
      ],
      "name": "sessionCheckpoints",
      "outputs": [
        {
          "internalType": "bytes32",
          "name": "",
          "type": "bytes32"
        }
      ],
      "stateMutability": "view",
      "type": "function"
    },
    {
      "inputs": [
        {
          "internalType": "address",
          "name": "_stakingContract",
          "type": "address"
        }
      ],
      "name": "setStakingContract",
      "outputs": [],
      "stateMutability": "nonpayable",
      "type": "function"
    },
    {
      "inputs": [],
      "name": "stakingContract",
      "outputs": [
        {
          "internalType": "address",
          "name": "",
          "type": "address"
        }
      ],
      "stateMutability": "view",
      "type": "function"
    },
    {
      "inputs": [],
      "name": "teeSigner",
      "outputs": [
        {
          "internalType": "address",
          "name": "",
          "type": "address"
        }
      ],
      "stateMutability": "view",
      "type": "function"
    },
    {
      "inputs": [
        {
          "internalType": "address",
          "name": "newOwner",
          "type": "address"
        }
      ],
      "name": "transferOwnership",
      "outputs": [],
      "stateMutability": "nonpayable",
      "type": "function"
    },
    {
      "inputs": [
        {
          "internalType": "address",
          "name": "_newSigner",
          "type": "address"
        }
      ],
      "name": "updateTEESigner",
      "outputs": [],
      "stateMutability": "nonpayable",
      "type": "function"
    },
    {
      "inputs": [
        {
          "internalType": "address",
          "name": "",
          "type": "address"
        },
        {
          "internalType": "uint256",
          "name": "",
          "type": "uint256"
        }
      ],
      "name": "userCheckpoints",
      "outputs": [
        {
          "internalType": "bytes32",
          "name": "",
          "type": "bytes32"
        }
      ],
      "stateMutability": "view",
      "type": "function"
    }
  ],
  "bytecode": "0x6101606040523480156200001257600080fd5b5060405162002257380380620022578339810160408190526200003591620002d5565b604080518082018252600f81526e292a2326a0ba3a32b9ba30ba34b7b760891b602080830191909152825180840190935260018352603160f81b90830152339162000082826000620001ea565b6101205262000093816001620001ea565b61014052815160208084019190912060e052815190820120610100524660a0526200012160e05161010051604080517f8b73c3c69bb8fe3d512ecc4cf759cc79239f7b179b0ffacaa9a75d522b39400f60208201529081019290925260608201524660808201523060a082015260009060c00160405160208183030381529060405280519060200120905090565b60805250503060c0526001600160a01b0381166200015a57604051631e4fbdf760e01b8152600060048201526024015b60405180910390fd5b620001658162000223565b5060016003556001600160a01b038216620001b85760405162461bcd60e51b815260206004820152601260248201527124b73b30b634b2102a22a29039b4b3b732b960711b604482015260640162000151565b600480546001600160a01b039384166001600160a01b03199182161790915560058054929093169116179055620004f3565b60006020835110156200020a57620002028362000275565b90506200021d565b81620002178482620003b2565b5060ff90505b92915050565b600280546001600160a01b038381166001600160a01b0319831681179093556040519116919082907f8be0079c531659141344cd1fd0a4f28419497f9722a3daafe3b4186f6b6457e090600090a35050565b600080829050601f81511115620002a3578260405163305a27a960e01b81526004016200015191906200047e565b8051620002b082620004ce565b179392505050565b80516001600160a01b0381168114620002d057600080fd5b919050565b60008060408385031215620002e957600080fd5b620002f483620002b8565b91506200030460208401620002b8565b90509250929050565b634e487b7160e01b600052604160045260246000fd5b600181811c908216806200033857607f821691505b6020821081036200035957634e487b7160e01b600052602260045260246000fd5b50919050565b601f821115620003ad57600081815260208120601f850160051c81016020861015620003885750805b601f850160051c820191505b81811015620003a95782815560010162000394565b5050505b505050565b81516001600160401b03811115620003ce57620003ce6200030d565b620003e681620003df845462000323565b846200035f565b602080601f8311600181146200041e5760008415620004055750858301515b600019600386901b1c1916600185901b178555620003a9565b600085815260208120601f198616915b828110156200044f578886015182559484019460019091019084016200042e565b50858210156200046e5787850151600019600388901b60f8161c191681555b5050505050600190811b01905550565b600060208083528351808285015260005b81811015620004ad578581018301518582016040015282016200048f565b506000604082860101526040601f19601f8301168501019250505092915050565b80516020808301519190811015620003595760001960209190910360031b1b16919050565b60805160a05160c05160e051610100516101205161014051611d096200054e60003960006110e0015260006110ae015260006115630152600061153b01526000611496015260006114c0015260006114ea0152611d096000f3fe608060405234801561001057600080fd5b50600436106101165760003560e01c80638f663045116100a25780639dd373b9116100715780639dd373b91461028b578063c97d1e6d1461029e578063eb5e91ff146102b1578063ee99205c146102d7578063f2fde38b146102ea57600080fd5b80638f6630451461020c57806395bc712b1461022c578063987455151461023f57806399a2bb3d1461026257600080fd5b80634c2e5d65116100e95780634c2e5d65146101b05780636bdac3e8146101c3578063715018a6146101d657806384b0196e146101e05780638da5cb5b146101fb57600080fd5b806301c7b8a01461011b5780630943832014610144578063215873e91461016557806343f855c314610185575b600080fd5b61012e610129366004611702565b6102fd565b60405161013b91906117e3565b60405180910390f35b610157610152366004611845565b610545565b60405190815260200161013b565b61015761017336600461186f565b60009081526008602052604090205490565b600454610198906001600160a01b031681565b6040516001600160a01b03909116815260200161013b565b6101576101be366004611888565b610576565b61012e6101d13660046118aa565b610592565b6101de6107c2565b005b6101e86107d6565b60405161013b97969594939291906118d6565b6002546001600160a01b0316610198565b61021f61021a36600461197d565b61081c565b60405161013b91906119b9565b6101de61023a3660046119cc565b61093d565b61025261024d36600461197d565b610d8d565b604051901515815260200161013b565b610157610270366004611a86565b6001600160a01b031660009081526007602052604090205490565b6101de610299366004611a86565b610db8565b6101de6102ac366004611a86565b610e6b565b6102c46102bf36600461186f565b610f12565b60405161013b9796959493929190611aa1565b600554610198906001600160a01b031681565b6101de6102f8366004611a86565b610fea565b6001600160a01b03831660009081526007602052604081206060916103228486611b09565b8254909150811115610332575080545b8154851061037557604080516000808252602082019092529061036b565b6103586116ab565b8152602001906001900390816103505790505b509250505061053e565b60006103818683611b32565b67ffffffffffffffff81111561039957610399611b1c565b6040519080825280602002602001820160405280156103d257816020015b6103bf6116ab565b8152602001906001900390816103b75790505b509050855b8281101561053857600660008583815481106103f5576103f5611b45565b600091825260208083209091015483528281019390935260409182019020815160e08101835281546001600160a01b03168152600182015493810193909352600281015460ff1691830191909152600381015460608301526004810154608083015260058101805460a08401919061046c90611b5b565b80601f016020809104026020016040519081016040528092919081815260200182805461049890611b5b565b80156104e55780601f106104ba576101008083540402835291602001916104e5565b820191906000526020600020905b8154815290600101906020018083116104c857829003601f168201915b50505091835250506006919091015460ff1615156020909101528261050a8984611b32565b8151811061051a5761051a611b45565b6020026020010181905250808061053090611b95565b9150506103d7565b50925050505b9392505050565b6007602052816000526040600020818154811061056157600080fd5b90600052602060002001600091509150505481565b6008602052816000526040600020818154811061056157600080fd5b60008381526008602052604081206060916105ad8486611b09565b82549091508111156105bd575080545b815485106105ff57604080516000808252602082019092529061036b565b6105e36116ab565b8152602001906001900390816105db579050509250505061053e565b600061060b8683611b32565b67ffffffffffffffff81111561062357610623611b1c565b60405190808252806020026020018201604052801561065c57816020015b6106496116ab565b8152602001906001900390816106415790505b509050855b82811015610538576006600085838154811061067f5761067f611b45565b600091825260208083209091015483528281019390935260409182019020815160e08101835281546001600160a01b03168152600182015493810193909352600281015460ff1691830191909152600381015460608301526004810154608083015260058101805460a0840191906106f690611b5b565b80601f016020809104026020016040519081016040528092919081815260200182805461072290611b5b565b801561076f5780601f106107445761010080835404028352916020019161076f565b820191906000526020600020905b81548152906001019060200180831161075257829003601f168201915b50505091835250506006919091015460ff161515602090910152826107948984611b32565b815181106107a4576107a4611b45565b602002602001018190525080806107ba90611b95565b915050610661565b6107ca611028565b6107d46000611055565b565b6000606080600080600060606107ea6110a7565b6107f26110d9565b60408051600080825260208201909252600f60f81b9b939a50919850469750309650945092509050565b6108246116ab565b6000610831858585611106565b600081815260066020908152604091829020825160e08101845281546001600160a01b03168152600182015492810192909252600281015460ff16928201929092526003820154606082015260048201546080820152600582018054939450909260a0840191906108a190611b5b565b80601f01602080910402602001604051908101604052809291908181526020018280546108cd90611b5b565b801561091a5780601f106108ef5761010080835404028352916020019161091a565b820191906000526020600020905b8154815290600101906020018083116108fd57829003601f168201915b50505091835250506006919091015460ff16151560209091015295945050505050565b610945611162565b8560ff166003148061095a57508560ff166005145b8061096857508560ff166007145b6109b05760405162461bcd60e51b8152602060048201526014602482015273125b9d985b1a59081b5a5b195cdd1bdb9948125160621b60448201526064015b60405180910390fd5b60418114610a005760405162461bcd60e51b815260206004820152601860248201527f496e76616c6964207369676e6174757265206c656e677468000000000000000060448201526064016109a7565b6000610a0d898989611106565b60008181526006602052604090206003015490915015610a6f5760405162461bcd60e51b815260206004820152601b60248201527f436865636b706f696e7420616c7265616479207265636f72646564000000000060448201526064016109a7565b42861115610ab25760405162461bcd60e51b815260206004820152601060248201526f04675747572652074696d657374616d760841b60448201526064016109a7565b610abf6201518042611b32565b8611610b015760405162461bcd60e51b8152602060048201526011602482015270151a5b595cdd185b5c081d1bdbc81bdb19607a1b60448201526064016109a7565b60006040518060c001604052808b6001600160a01b031681526020018a81526020018960ff1681526020018881526020018781526020018681525090506000610b498261118c565b90506000610b8f86868080601f016020809104026020016040519081016040528093929190818152602001838380828437600092019190915250869392505061123e9050565b6004549091506001600160a01b03808316911614610be75760405162461bcd60e51b8152602060048201526015602482015274496e76616c696420544545207369676e617475726560581b60448201526064016109a7565b6040518060e001604052808d6001600160a01b031681526020018c81526020018b60ff1681526020018a815260200189815260200187878080601f016020809104026020016040519081016040528093929190818152602001838380828437600092018290525093855250506001602093840181905288835260068452604092839020855181546001600160a01b0319166001600160a01b0390911617815593850151908401555082015160028201805460ff191660ff909216919091179055606082015160038201556080820151600482015560a08201516005820190610ccf9082611bfd565b5060c091909101516006909101805460ff19169115159190911790556001600160a01b038c166000818152600760209081526040808320805460018181018355918552838520018990558f8452600883528184208054918201815584529282902090920187905581518c81529081018b905260ff8d16928e9290917f92becdb918018a6464809ef1a470fa5ea7d1067c213e3934fa68dabbf3e696e9910160405180910390a450505050610d836001600355565b5050505050505050565b600080610d9b858585611106565b600090815260066020526040902060030154151595945050505050565b610dc0611028565b6001600160a01b038116610e085760405162461bcd60e51b815260206004820152600f60248201526e496e76616c6964206164647265737360881b60448201526064016109a7565b600580546001600160a01b038381166001600160a01b0319831681179093556040519116919082907f9e925d59a63a83fcfc0c5e45552607d521529c1c86e4045e00c2e4965157828890610e5f9042815260200190565b60405180910390a35050565b610e73611028565b6001600160a01b038116610ebb5760405162461bcd60e51b815260206004820152600f60248201526e496e76616c6964206164647265737360881b60448201526064016109a7565b600480546001600160a01b038381166001600160a01b0319831681179093556040519116919082907ff8e8074301217a06ba7e03ed9bec6bdacd7882cd028f0b3ed3cbfff69ea493f090610e5f9042815260200190565b6006602052600090815260409020805460018201546002830154600384015460048501546005860180546001600160a01b0390961696949560ff909416949293919291610f5e90611b5b565b80601f0160208091040260200160405190810160405280929190818152602001828054610f8a90611b5b565b8015610fd75780601f10610fac57610100808354040283529160200191610fd7565b820191906000526020600020905b815481529060010190602001808311610fba57829003601f168201915b5050506006909301549192505060ff1687565b610ff2611028565b6001600160a01b03811661101c57604051631e4fbdf760e01b8152600060048201526024016109a7565b61102581611055565b50565b6002546001600160a01b031633146107d45760405163118cdaa760e01b81523360048201526024016109a7565b600280546001600160a01b038381166001600160a01b0319831681179093556040519116919082907f8be0079c531659141344cd1fd0a4f28419497f9722a3daafe3b4186f6b6457e090600090a35050565b60606110d47f00000000000000000000000000000000000000000000000000000000000000006000611268565b905090565b60606110d47f00000000000000000000000000000000000000000000000000000000000000006001611268565b6040516bffffffffffffffffffffffff19606085901b166020820152603481018390526001600160f81b031960f883901b1660548201526000906055016040516020818303038152906040528051906020012090509392505050565b60026003540361118557604051633ee5aeb560e01b815260040160405180910390fd5b6002600355565b60006112387f98cab14dc9d8c44b24eadc1f27ea0f1f19e2d1e89f81aeb1dc74ea8b80e35f15836000015184602001518560400151866060015187608001518860a0015160405160200161121d97969594939291909687526001600160a01b03959095166020870152604086019390935260ff919091166060850152608084015260a083015260c082015260e00190565b60405160208183030381529060405280519060200120611313565b92915050565b60008060008061124e8686611340565b92509250925061125e828261138d565b5090949350505050565b606060ff83146112825761127b8361144a565b9050611238565b81805461128e90611b5b565b80601f01602080910402602001604051908101604052809291908181526020018280546112ba90611b5b565b80156113075780601f106112dc57610100808354040283529160200191611307565b820191906000526020600020905b8154815290600101906020018083116112ea57829003601f168201915b50505050509050611238565b6000611238611320611489565b8360405161190160f01b8152600281019290925260228201526042902090565b6000806000835160410361137a5760208401516040850151606086015160001a61136c888285856115b4565b955095509550505050611386565b50508151600091506002905b9250925092565b60008260038111156113a1576113a1611cbd565b036113aa575050565b60018260038111156113be576113be611cbd565b036113dc5760405163f645eedf60e01b815260040160405180910390fd5b60028260038111156113f0576113f0611cbd565b036114115760405163fce698f760e01b8152600481018290526024016109a7565b600382600381111561142557611425611cbd565b03611446576040516335e2f38360e21b8152600481018290526024016109a7565b5050565b6060600061145783611683565b604080516020808252818301909252919250600091906020820181803683375050509182525060208101929092525090565b6000306001600160a01b037f0000000000000000000000000000000000000000000000000000000000000000161480156114e257507f000000000000000000000000000000000000000000000000000000000000000046145b1561150c57507f000000000000000000000000000000000000000000000000000000000000000090565b6110d4604080517f8b73c3c69bb8fe3d512ecc4cf759cc79239f7b179b0ffacaa9a75d522b39400f60208201527f0000000000000000000000000000000000000000000000000000000000000000918101919091527f000000000000000000000000000000000000000000000000000000000000000060608201524660808201523060a082015260009060c00160405160208183030381529060405280519060200120905090565b600080807f7fffffffffffffffffffffffffffffff5d576e7357a4501ddfe92f46681b20a08411156115ef5750600091506003905082611679565b604080516000808252602082018084528a905260ff891692820192909252606081018790526080810186905260019060a0016020604051602081039080840390855afa158015611643573d6000803e3d6000fd5b5050604051601f1901519150506001600160a01b03811661166f57506000925060019150829050611679565b9250600091508190505b9450945094915050565b600060ff8216601f81111561123857604051632cd44ac360e21b815260040160405180910390fd5b6040805160e08101825260008082526020820181905291810182905260608082018390526080820183905260a082015260c081019190915290565b80356001600160a01b03811681146116fd57600080fd5b919050565b60008060006060848603121561171757600080fd5b611720846116e6565b95602085013595506040909401359392505050565b6000815180845260005b8181101561175b5760208185018101518683018201520161173f565b506000602082860101526020601f19601f83011685010191505092915050565b60018060a01b0381511682526020810151602083015260ff60408201511660408301526060810151606083015260808101516080830152600060a082015160e060a08501526117cd60e0850182611735565b60c0938401511515949093019390935250919050565b6000602080830181845280855180835260408601915060408160051b870101925083870160005b8281101561183857603f1988860301845261182685835161177b565b9450928501929085019060010161180a565b5092979650505050505050565b6000806040838503121561185857600080fd5b611861836116e6565b946020939093013593505050565b60006020828403121561188157600080fd5b5035919050565b6000806040838503121561189b57600080fd5b50508035926020909101359150565b6000806000606084860312156118bf57600080fd5b505081359360208301359350604090920135919050565b60ff60f81b881681526000602060e0818401526118f660e084018a611735565b8381036040850152611908818a611735565b606085018990526001600160a01b038816608086015260a0850187905284810360c0860152855180825283870192509083019060005b8181101561195a5783518352928401929184019160010161193e565b50909c9b505050505050505050505050565b803560ff811681146116fd57600080fd5b60008060006060848603121561199257600080fd5b61199b846116e6565b9250602084013591506119b06040850161196c565b90509250925092565b60208152600061053e602083018461177b565b60008060008060008060008060e0898b0312156119e857600080fd5b6119f1896116e6565b975060208901359650611a0660408a0161196c565b9550606089013594506080890135935060a0890135925060c089013567ffffffffffffffff80821115611a3857600080fd5b818b0191508b601f830112611a4c57600080fd5b813581811115611a5b57600080fd5b8c6020828501011115611a6d57600080fd5b6020830194508093505050509295985092959890939650565b600060208284031215611a9857600080fd5b61053e826116e6565b60018060a01b038816815286602082015260ff8616604082015284606082015283608082015260e060a08201526000611add60e0830185611735565b905082151560c083015298975050505050505050565b634e487b7160e01b600052601160045260246000fd5b8082018082111561123857611238611af3565b634e487b7160e01b600052604160045260246000fd5b8181038181111561123857611238611af3565b634e487b7160e01b600052603260045260246000fd5b600181811c90821680611b6f57607f821691505b602082108103611b8f57634e487b7160e01b600052602260045260246000fd5b50919050565b600060018201611ba757611ba7611af3565b5060010190565b601f821115611bf857600081815260208120601f850160051c81016020861015611bd55750805b601f850160051c820191505b81811015611bf457828155600101611be1565b5050505b505050565b815167ffffffffffffffff811115611c1757611c17611b1c565b611c2b81611c258454611b5b565b84611bae565b602080601f831160018114611c605760008415611c485750858301515b600019600386901b1c1916600185901b178555611bf4565b600085815260208120601f198616915b82811015611c8f57888601518255948401946001909101908401611c70565b5085821015611cad5787850151600019600388901b60f8161c191681555b5050505050600190811b01905550565b634e487b7160e01b600052602160045260246000fdfea264697066735822122007c1a82ab8020026c61f888c0cc87d4b70e70dba01ac4476a79be3b6c9376f8464736f6c63430008140033",
  "linkReferences": {},
  "deployedLinkReferences": {}
}